:1000000000000420D1330000F9330000FB3300006E
:10001000FD330000FF330000013400000000000049
:100020000000000000000000000000000334000099
:10003000053400000000000007340000093400000F
:100040000B3400000B340000FD1200000B340000E4
:100050000B3400000B3400000B3400000B340000A4
:10006000450F00000B3400000B3400000B3400007F
:100070000B3400000B3400000B3400000B34000084
:100080000B340000350800000B3400000B34000076
:10009000F50800000B3400000B3400000B340000A6
:1000A0000B3400000B3400000B3400000B34000054
:1000B0000B3400000B3400000000000000000000C2
:1000C0000B3400000B3400000B3400000B34000034
:1000D0000B3400000B3400000B3400000B34000024
:1000E0000B3400000B3400000B3400000B34000014
:1000F000000000000B3400000000000000000000C1
:1001000000000000000000000000000000000000EF
:1001100000000000000000000000000000000000DF
:1001200000000000000000000000000000000000CF
:1001300000000000000000000000000000000000BF
:1004000010B5054C237833B9044B13B10448AFF34E
:1004100000800123237010BDC46300200000000091
:10042000F455000008B5034B1BB103490348AFF373
:10043000008008BD00000000C8630020F4550000E3
:10044000154B002B08BF134B9D46A3F5803A0021A6
:100450008B460F461348144A121A00F063F80F4BEC
:10046000002B00D098470E4B002B00D0984700205F
:10047000002104000D000D48002802D00C48AFF305
:10048000008000F02BF82000290001F0B1FA00F004
:1004900011F800BF00000800000004200000000068
:1004A00000000000C46300202005012000000000BF
:1004B0000000000008B5074B044613B10021AFF35C
:1004C0000080054B1868836A03B19847204600F006
:1004D00031F800BF000000009454000070B50D4DCD
:1004E0000D4C641BA4100026A64209D10B4D0C4CE8
:1004F00004F0C4FF641BA4100026A64205D170BD01
:1005000055F8043B98470136EEE755F8043B984709
:100510000136F2E7BC630020BC630020BC6300200E
:10052000C063002002440346934200D1704703F8A1
:10053000011BF9E7FEE700BF0378012B04BF014A66
:1005400013707047E26300202DE9F0431D4F3B78A4
:1005500089B006461BB11C4B1B7883422DD01B4D26
:1005600001F072F90FCD6C460FC495E80F004FF003
:10057000000C84E80F004FF0060815488DF814C0F1
:100580004FF0EB734FF0080907240525CDE90089EA
:10059000CDE90245069300F00BFE002E0D4A0C48F3
:1005A00018BF0022694600F0F9FC18B9064A012379
:1005B00016703B7009B0BDE8F083002009B0BDE8BB
:1005C000F08300BFE1630020E06300209854000046
:1005D00064000020390500000120FFF7B5BF00BF0F
:1005E0002DE9F0411B4C05460020A7680E4600F09F
:1005F0000FF9D4E90132D4F8008013440133A3EB9E
:100600000800012811D860B1134B08EA020204EB7C
:1006100082029B0208F1010743F0290300202760B2
:10062000D360BDE8F04100F0FBB808F10103002001
:10063000236000F0F5F805F00701C90007EA080794
:1006400041F0010104EB870441EA8621E160BDE845
:10065000F08100BFE4630020B85400002DE9F043AE
:100660004E4ED6E900218A428BB072D0B76807EAB5
:100670000105023506EB85020131546814F00303CD
:100680000ED1C4F3891303EB94530B4407EA03051B
:10069000023506EB8502591C546814F00303F0D0B0
:1006A000022B2DD014F4707FC4F39522C4F3831C65
:1006B0006CD004AB18460CEB01080D463D4006EB30
:1006C00085050131ED6840F8045B4145F5D1C4F37F
:1006D000C200CDF800C0D6F810440021A04760B990
:1006E000D6F804803068B0EB080018BF01200BB0CA
:1006F000BDE8F083033008EB9008C6F80480F1E70A
:1007000001F1010827EA080007EA0103013006EBBE
:1007100083038000B0EB945FDA684FEA9459C4F326
:1007200089131AD2A8B307EA0801C7B20331A9EBAB
:100730000700DFF86CC006EB8101C0B2CDE90017FD
:10074000CDE902C0D6F814740021C4F3C200B84742
:1007500012E000200BB0BDE8F08307EA0800033088
:1007600006EB80000021CDE90009CDE90211D6F8A1
:100770001474C4F3C200B8474845BBD006EB8505E6
:1007800060F38F14D6F804806C60ABE7884604AB46
:100790009DE703495FFA89F78446CFE7E4630020C9
:1007A000F063002000B585B00021034601AA44F2A1
:1007B00001000393ADF80410029100F003F805B0B6
:1007C0005DF804FB08B50E490120FFF709FFFFF7AC
:1007D00003FFFFF743FF0028FBD10A4B1B68DB0731
:1007E0000CD4BFF34F8F0849084BCA6802F4E0628B
:1007F0001343CB60BFF34F8F00BFFDE7FFDE00BFA9
:10080000C4540000F0ED00E000ED00E00400FA0543
:1008100072B6024A1368013313607047FC67002008
:10082000034A1368013B136003B962B6704700BF07
:10083000FC6700202DE9F8432649274B0024C1F826
:100840004041C1F84441C1F84841C1F84C41C1F8A8
:100850000041C1F804411B681BB32048D1F804557E
:1008600001681A681E4E6D1A25F07F45AA42A046FF
:1008700009D8197CDF69AD1A1444A1B91FB13B46F0
:100880001A68AA42F5D91749174A0B7812789A4282
:1008900019D01649164A41F823404FF48013C2F884
:1008A0000031BDE8F883D3E90591326883F8108000
:1008B00048462AB190470028E0D0FFF773FFDDE7F4
:1008C0000846C847DAE7531CDBB2022B08BF0023F7
:1008D0000B70DEE700100140206800201C6800203B
:1008E00000680020196800201868002010680020A7
:1008F00000E100E02DE9F04F984A99491378097812
:10090000DFF874E29942DEF800C08BB000F00F818E
:100910000133DBB2022B08BF00231370914A52F857
:1009200023500CEB050323F07F4ACEF800A00126EC
:10093000DFF848B28C4A9BF801309BF80010019315
:1009400099428A4B126800920593DBF804201B78C9
:100950000292049300F014814FF000099BF80220EA
:100960000392CDE90793009BCDF824A0C8460A4620
:1009700010B200EB4000029F069017F83040039839
:100980000132D2B2824208BF00220698022C07EB45
:10099000C00000F09F80032C07D133B183F8108092
:1009A000DB69002BFAD14FF0010901988242DFD1B7
:1009B000079A002A40F0B180B9F1000F08D0009AE0
:1009C0000093B2EB0309684A18BF4FF001091360A6
:1009D000002E40F0DD8034464FF0000EA446009813
:1009E000F0467746BCF1000F2FD0DCE901426346A8
:1009F000DCF81CC05E4EA4EB0A0525F07F45B5422D
:100A000053D82A444FF00104C3E901771A601C74DB
:100A1000DF6100285AD00468944280F0F1800546D6
:100A200004E02E68964280F0768134460795ED69A1
:100A30000692121B002DF4D11A60079ADD61D36172
:100A400003461846BCF1000FCFD1019B994200F03C
:100A50006C81029A039B01EB4105013112F835804C
:100A6000C9B2994208BF0021B8F1010F02EBC505D8
:100A700040F0CD806B681E7C002E40F0C880AC68D2
:100A80005C60EA689A6006962E69DE606D699D6119
:100A9000049D002DAED0069C354E5C60A846A4EBAC
:100AA0000A0525F07F45B542ABD9AAEB040424F032
:100AB0007F44944280F09880121B4FF00104C3E9F8
:100AC00001771A601C74DF610028A4D14FF0010E79
:100AD0001846B7E74468002B3FF467AFA34234D011
:100AE00018460746C06900283FF45FAF8442F8D13A
:100AF000BC4206970AD0C469069F0068FC61002CBE
:100B00003FF453AF2768384420604EE7DB6993B168
:100B10002068E4694FF00109F4E7059A1046089A45
:100B200002700998CEF800000492824644E700253E
:100B30002E46E246FCE60F4C4FF001090023C4F8B4
:100B40000890CDE907990993D5E7DB69069420461B
:100B5000002BF0D04FF00109CDE700BF186800204E
:100B60001968002010680020206800200C68002010
:100B7000FEFF7F00001001401C6800200468002078
:100B80009BF8023003934FF00009002E3FF423AF8F
:100B9000009B002B00F025811A680027AA423C46E2
:100BA0003846BE4618D8DF68D3F81C80C3F800E08A
:100BB000AD1A10443FB10CEB000222F07F42C3E9B2
:100BC0000127DC611C46B8F1000F00F003814346A9
:100BD00037461A68AA42E6D917B1834800930360E2
:100BE000551B1D60B146F7E64FF00102C3E90077DF
:100BF0009F601A74DF6100283FF468AF0468002228
:100C0000A21A02604FF0010ED86118461AE7019B44
:100C100099427FF41FAF8BF80010BEF1000F7FD018
:100C2000714B1860009B984202D1B9F1000F6CD053
:100C300000286AD06D4C6E4DD4F804152E780368E8
:100C4000A1EB0A0222F07F420332002E72D09342BF
:100C50002CBF53440AEB0203644823F07F43C0F8DF
:100C60004035D0F80425521A5B1A22F07F4223F057
:100C70007F4303329A4248D9D0F804355D4AC0F820
:100C8000403512685C492F2300BF00BF00BF00BF82
:100C900000BF00BF00BF00BF8A422FD000BF00BF0F
:100CA00000BF00BF00BF00BF00BF00BF00BF00BF4C
:100CB00000BF00BF00BF00BF00BF00BF00BF00BF3C
:100CC00000BF00BF00BF00BF00BF00BF00BF00BF2C
:100CD00000BF00BF00BF00BF00BF00BF00BF00BF1C
:100CE00000BF00BF00BF00BF00BF00BF00BF00BF0C
:100CF00000BF00BF00BF00BF00BF00BF013BC3D1AA
:100D00003E4B4FF40032C3F80021059A00231370C4
:100D10000BB0BDE8F08F2644069C361B2E608BE698
:100D20000098B9F1000FF0D082E7B8F1000F7FF41E
:100D300072AF72E731484FF480374FF40036C4F891
:100D40004473C4F80473C0F880610660294F01261B
:100D500026603C68284F2F2000BF00BF00BF00BFA7
:100D600000BF00BF00BF00BFBC422FD000BF00BF0C
:100D700000BF00BF00BF00BF00BF00BF00BF00BF7B
:100D800000BF00BF00BF00BF00BF00BF00BF00BF6B
:100D900000BF00BF00BF00BF00BF00BF00BF00BF5B
:100DA00000BF00BF00BF00BF00BF00BF00BF00BF4B
:100DB00000BF00BF00BF00BF00BF00BF00BF00BF3B
:100DC00000BF00BF00BF00BF00BF00BF0138C3D1DC
:100DD0002E703CE7044BCDF80080C3F80080B1468C
:100DE000FAE51C46B146F7E52068002000100140F6
:100DF0000D680020B86300200024F40000E100E04A
:100E00002DE9F04107792E4E044607EB470006EB2B
:100E1000800C82B09CF80830002B4BD1002A4DD0BA
:100E200080000D4632504A68CCF8042062794FEABF
:100E300047087AB11A4618469B00216803F5A0734B
:100E40000132C850CB5861790193D3B29942DDF891
:100E500004C0F1D82068E97840F3073000F0C0FB07
:100E600021686B78D1F8042503F0030322F0030214
:100E70001343C1F804352168AB78D1F8082503F095
:100E8000030322F003021343C1F8083521682B78CD
:100E9000D1F81025474406EB870603F00F0322F034
:100EA0000F02012013433072C1F81035002002B048
:100EB000BDE8F081082002B0BDE8F0810720F6E728
:100EC000246800200368054A01211960037903EBB7
:100ED000430302EB830302221A7270472468002046
:100EE0000368054A01211961037903EB430302EB0F
:100EF00083031972704700BF24680020F0B40768AC
:100F00009DF81060D7F8004240F201158D4024EAA8
:100F10000504C7F800420568D5F800422343C5F828
:100F200000324FF4803403688C4046B1C3F8044368
:100F3000036801F5A87143F82120F0BC7047C3F89D
:100F40000843F5E72DE9F041114CDFF84C80114ED4
:100F500082B000254FF480372368A4F5004007FADB
:100F600005F180B2013563B1D8F8042311424FF086
:100F7000000306D0236023680193D6E90031019A6B
:100F80009847042D04F10404E6D102B0BDE8F081D5
:100F9000408100402468002000800040F0B5804D72
:100FA0000379044605EB431087B0C77E002F40F05D
:100FB000D9805E014B7F03770B685F1C19D01F2B14
:100FC0004FF001008ABF774F4FF0A04703F01F0397
:100FD00000FA03F3C7F808350B681F2B86BF03F030
:100FE0001F0370484FF0A04003F5E073032740F85B
:100FF00023704B68581C0BD01F2B86BF03F01F03B8
:1010000068484FF0A04003F5E073002740F82370D4
:10101000237905EB43131B7F002B5BD12368886981
:10102000C3F824050F7D4B7D20683B43C0F86C3529
:10103000D1E900072368C3F81475C3F80C050B7DCC
:10104000012B5BD0AB195A600B69AB51002A2DD034
:101050002379097F226805EB43131B7F002B00F0E7
:1010600088800023C2F81031D2F810210292226841
:10107000029FC2F82031D2F8202103922268039FF8
:10108000C2F82431D2F8242104922268049FC2F8C5
:101090004431D2F84421236843480592059AC3F8A5
:1010A0000403206840F3073000F09AFA237922689D
:1010B00005EB43131B7F002B57D00823C2F80035E4
:1010C000354400234FF4807218462B76EB826A83F6
:1010D00007B0F0BD23688869C3F824050F7D4B7DF8
:1010E00020683B43C0F86C35D1E900702368C3F831
:1010F0000C75C3F814050B7D012BA3D18B685F1C05
:101100000BD01F2B86BF03F01F03264F4FF0A047C5
:1011100003F5E073002047F82300CB68581C1AD071
:101120001F2B8ABF1F4F4FF0A04703F01F03012062
:1011300000FA03F3C7F80835CB681F2B88BF03F00C
:101140001F0303F5E0738CBF164F4FF0A047032039
:1011500047F82300CB6820688F68C0F80835C0F8CE
:1011600010756FE7082007B0F0BD0423C2F8003502
:10117000A6E7C2F81C31D2F81C2100922268009F19
:10118000C2F84431D2F84421236801920748019AF9
:10119000C3F80403206840F3073000F021FA85E724
:1011A000306800200003005010030200800002009D
:1011B000F0B44D4B0179046803EB41124901127FF1
:1011C000002A00F08E800022C4F800255A185268C8
:1011D000F2B1027903EB4212127F002A7ED102683B
:1011E000424CC2F80843026842F30734002C4FEA2D
:1011F00012350EDB64093E4E2034012205F01F0536
:1012000002FA05F546F82450BFF34F8FBFF36F8FF6
:1012100002680479D2F80C75D2F8146503EB441413
:101220004FF0FF3C247F002C4AD0D2F80845D2F87A
:101230001055C2F80CC5C2F814C50268C2F808C53A
:10124000C2F810C57A1C0BD01F2F86BF07F01F07EE
:10125000284A4FF0A04207F5E077022042F8270025
:10126000771C0BD01F2E86BF06F01F06214A4FF0B9
:10127000A04206F5E076022042F82600681C0BD05A
:101280001F2D86BF05F01F051A4A4FF0A04205F535
:10129000E075022042F82500621C0BD01F2C86BF8F
:1012A00004F01F04134A4FF0A04204F5E07402203A
:1012B00042F824000B440022DA765A60F0BC7047F2
:1012C000D2F80845D2F81055C2F814C5C2F80CC5BA
:1012D0000268C2F808C5C2F810C5B3E70268064C38
:1012E0007FE7C4F8002571E730680020840202001F
:1012F00000E100E0000300501003020070B5A84CAC
:10130000237F8EB0002B74D0A64BD3F82421002A63
:1013100045D00022C3F82421D3F8241102910221E0
:101320008DF828100299D3F88014C3F880140D9119
:10133000D3F83C15E3688DF830100B93216863688F
:10134000E27522760AA89847964BD3F8442152B109
:101350000022C3F84421D3F84401E17D01900198B3
:10136000002940F0E9808F4BD3F82021AAB1002258
:10137000C3F82021D3F82001A17D0090009861B12D
:10138000D3F84C15A3688DF830100B938DF82820F6
:10139000D4E90013A2750AA898470EB070BDD3F81F
:1013A00010110029D0D0C3F81021D3F810110391E7
:1013B0000399D3F83C15E07DC9B28842C4D1217E9F
:1013C000002900F0E080D3F80052E17525F02005F7
:1013D000C3F80052D4E9036501238DF830008DF87D
:1013E00028302168636822760B96E5600AA8984742
:1013F000AAE76C4AD2F80413890567D5D2F82411FC
:10140000002963D0C2F82431D2F82411A37E0791B9
:101410004FF401710798C2F808130BB90123536008
:10142000604A02238DF82830D2F88034C2F8803424
:10143000E07DE2680D9300238DF83000E37523769C
:10144000216863680B920AA89847564BD3F81C2171
:10145000C2B1A28AA17D92B28A424FF00002C3F8C3
:101460001C2178D3D3F81C310593059B51B1A36897
:101470008DF830100B938DF82820D4E90013A27555
:101480000AA89847474BD3F84421002A85D0002268
:10149000C3F84421D3F84411A27E049104990AB1FF
:1014A00001221A60E37D002B3FF477AF0023617EB9
:1014B000E268E37501238DF830108DF828300B9227
:1014C000D4E900130AA898470EB070BD354BD3F885
:1014D00004235207B9D5D3F80821002AB5D0E27DFC
:1014E000002A47D00022C3F80821D3F80821089227
:1014F000089AE168627ED3F818358B54637EE27DEA
:101500000133DBB26376637E93429ED1237E002B50
:101510004AD0607EE5682169E375012200238DF8D9
:101520003000E160237663760B95D4E900138DF8E3
:1015300028200AA8984788E7D3F83C35E1688DF859
:10154000303001230B918DF82830E275D4E9001377
:101550000AA8984707E7D3F81C210692069AA18AA1
:10156000A28AA06889B20132415C92B2A282C3F819
:101570001C1587E7C3F80821D3F8081109910999C8
:10158000D3F81835BFE7E268E17501238DF8300024
:101590008DF828300B92D4E900130AA89847D3E6B7
:1015A0003068002000200040A37E13B90B4B0122BD
:1015B0005A600A4AE06863684FF40171C2F8081380
:1015C000627E8DF83020002501220B902168E575A0
:1015D0008DF828200AA8984737E700BF0020004070
:1015E000002819DB43099B0010B403F1604300F1AC
:1015F000604404F5614403F561430122490100F0B0
:101600001F00C9B202FA00F084F80013C3F8800189
:1016100018605DF8044B7047034B00F00F00490160
:101620000344C9B219767047FCEC00E010B51146CE
:101630001C461A46002000F003F8204610BD00BFEB
:101640002DE9F04F7A4F3B7883B005468A469146A4
:101650000BB305EB45064FF0000B07EBC6065846EB
:10166000CDF804B0FFF7D4F8D6F82C80B8F1010F0C
:101670004FEA450300F08A80B8F1020F4DD0B8F16F
:10168000000F28D0D8460020019BFFF7C9F840463C
:1016900003B0BDE8F08FBB62664A7B620221BB6586
:1016A000FB62FB657B65644B39617961BA614FF41C
:1016B0000071BA64FB61614A396210233B6560497D
:1016C000FA64F81D02F00CFF5E49384602F008FF8C
:1016D0002023BB71BDE7B26A706A82427FD9013AAA
:1016E000121A9145CFD82B4407EBC3060135746A13
:1016F000D6F820B0ABEB040805EB4505C14507EB78
:10170000C50780F082807868514620444A464C44A0
:1017100002F061FEC8467462B5E7013505EB450588
:10172000746AED00D846B36AA34203F1FF3222D9AE
:10173000131B326A4B4507EB0501A2EB040B28BFD4
:101740004B469B45486828BF9B46204451465A4615
:1017500002F041FE336A5C449C42D844A9EB0B0979
:10176000DA440DD07462B9F1000F8CD0B36AA34291
:1017700003F1FF32DCD8326A1344013B1B1BD9E76B
:1017800000247462B9F1000FCDD17CE7B26A706AAF
:1017900082421ED9013A366AA2EB00082B4407EBBD
:1017A000C304C84528BFC846D4F824900135A6EB29
:1017B000090B05EB4505D84507EBC50714D278683A
:1017C00051464246484408EB090602F004FE6662B0
:1017D00059E7366A91190139A1EB0008DEE7316A51
:1017E000114401390A1A7CE77868A8EB06065A46C4
:1017F00051464E44484402F0EEFD78680AEB0B0176
:10180000324602F0E8FD66623DE7786820444C44C9
:1018100042465146A4EB0B0402F0DDFD0AEB080141
:101820007868224602F0D7FDC84674622BE700BFF5
:1018300098040120DC5400006068002050680020FB
:10184000E8540000EC54000070B5124C237803B14A
:1018500070BD02211048114DA362114A6362E36218
:10186000A365E36521616365616110230D49E06152
:101870004FF40076E01DC4E91353A261A26426620E
:1018800002F02EFE0849204602F02AFE2023A37112
:1018900070BD00BF980401206068002050680020DF
:1018A000DC540000E8540000EC54000020BF40BFAE
:1018B00020BF0148FFF714BB585500002DE9F04F39
:1018C000404B414A414E424DDFF820818FB04FF0EE
:1018D000010A4FF01A0B00242027CDE908B2CDE908
:1018E00003A3082107220323CDE90512CDE90073E4
:1018F0005246384B0A94029407961C2101F0C8F80E
:1019000030464FF4A94101F07FF84FF002090D2352
:10191000CDE9019359463A4630464B46039400942C
:10192000049501F051FC284A2B4B0493CDE909247E
:1019300008224FF0060C4FF00B0B05920322CDF856
:1019400018C0CDE90072254B07963A46CDE9024A08
:101950000D212846CDF820B000F008FB28464FF4B2
:10196000726101F051F84FF0050CCDF808C04B46FC
:101970003A4659463046CDE90345CDE9004901F0E4
:1019800023FC1749174A0292072301930923CDE943
:101990000381009314490A2328464FF4487201F04A
:1019A0000BFA424640460A2101F0C2FC40460DAB0C
:1019B0000CAA0A2101F0F2FC9DF834000FB0BDE83A
:1019C000F08F00BFD8440020A0700020E09A0020D3
:1019D0006CEF0020AC1F0020F8440020CC20002039
:1019E000606A0020CC4400206C00002060EF0020E2
:1019F00070B5294884B002F017FD284B284A93E8B7
:101A0000030002AB83E8030026481946FFF7F8F904
:101A100000283ED1244B2348D3F810254FF47A51A7
:101A20000123D2B221FA02F200930021FFF766FAF5
:101A30001C48FFF747FA40BF20BF20BF1B4A1C4C81
:101A4000D3681C4843F080730025D3606560236829
:101A500043F0010323606668FFF730FF0721024669
:101A6000154802F0E1FC154B154A1B6861681548E2
:101A7000A2FB03239B09891BB1FBF3F102F0D4FC09
:101A80000848FFF72DFA40BF20BF20BF284604B00A
:101A900070BDFEF787FEBDE7F4540000505500000E
:101AA000AD1800005855000000800040F0ED00E047
:101AB000001000E01845002018550000B863002011
:101AC000D34D62103C5500002DE9F0435FEA9208C7
:101AD00083B0164604460F462ED001F1080900EBEC
:101AE0008805042221460DEB020002F074FC043448
:101AF000019B2FFA83F2AC424FEA332349F8082CBA
:101B00002FFA83F309F1080949F80C3CE9D107EBF6
:101B1000C80716F003060CD095F900303B80013E53
:101B200007D095F901307B80012E1CBF95F902305A
:101B3000BB8003B0BDE8F0830546EAE72DE9F04F2E
:101B40009FB08246BDF8A04013942B9CBDF8A450D2
:101B50001A92A6185208119510910A93199600F03E
:101B6000518118468C469B08013A97B215930CEBAD
:101B70004002013B00F00304012112929BB20B448E
:101B800001FA05F22A980E94611E129C1B979D0083
:101B900004300D9504EBC3050CEBC303179300EB66
:101BA00047031693530814938BB20F932A9B1895EF
:101BB000023309932B9B02330B93B31C0C93099AAA
:101BC000159912F9023C12F9018C139A934008FA04
:101BD00002F8149A134408EB020B0A9A0393524436
:101BE0000892002900F0B6810D99DDF8408001923D
:101BF0005144CDE9043B0791129902911DAECDF8F5
:101C000018B0D14641460422304602F0E4FB029966
:101C1000DDF874B00422304602F0DDFB49460422B0
:101C200030461D9C02F0D7FB1D9D2FFA85F04FEA30
:101C300035252FFA85F54FEA154A4FEA0A4A83B24D
:101C4000019904224AEA104A304643EA054502F067
:101C5000C2FB1D9B01982FFA83F14FEA33232FFA21
:101C600083F31F0C8AB204303F04019009F1040988
:101C7000039847EA114742EA034225FB0B03049805
:101C8000039325FB0405069822FB0B00059906909B
:101C900022FB0414042208EB0201304602F09BFBF5
:101CA000029BDDF874B0191D3046083304220293FC
:101CB00008F1080802F08FFB1D9A039B2AFB0B33E7
:101CC00003932AFB02530698049327FB0B03069306
:101CD00027FB02430593079B4B4593D1089B0D9A25
:101CE000DDF818B013440893DDE917230E9E002E8B
:101CF0004DD0079F0899B2F9004097F90050039E14
:101D000091F90010B3F9000014FB0566039614FB6B
:101D100001BB049E059C10FB056510FB01400F9C58
:101D20000495059074B3B2F9024097F90150039EEF
:101D30000899B3F9020091F9011014FB05660396A6
:101D4000049E14FB01BB10FB0565059C0E9E0495CB
:101D500010FB0144022E059414D0B2F90410089A25
:101D6000039E92F90200B3F9042097F9023011FBA7
:101D700000BB11FB036112FB004012FB03530590F3
:101D8000039104930F9B079A01331A440792039B14
:101D9000119A134103F307030B994BFA02F801F868
:101DA000023C134608F30708049D01F8018C0A461B
:101DB0001D4105F307050C99059C01F8025C1C41C7
:101DC00004F307040B46099801F8014C0233079904
:101DD0000A9C0C93169B02302144023298420990CF
:101DE0008A460B927FF4EBAE1B9B2A9A013302EBDF
:101DF00043022A922B9A02EB43022B92199A02EB8E
:101E0000430319931A9BDB0740F19D802A9B139A89
:101E100093F900500A9810999540119A0123934024
:101E200005EB530501EB40028308039200F09A8012
:101E3000013B9BB2013304930AEB83030293934665
:101E400089462C461DAF49460422384602F0C3FAA3
:101E50001D9B019359460422384602F0BCFA5146B4
:101E600004223846DDF8748002F0B5FA1D9A2FFA84
:101E700082F04FEA32222FFA82F2160C81B2360437
:101E8000019B0AF1040A46EA104641EA024222FB9B
:101E9000035522FB0844042209EB0201384602F0F4
:101EA0009AFA0BF1040138460422DDF8748009F136
:101EB000080902F090FA0BF1080B1D9B26FB085550
:101EC00026FB0344029B9A45BDD1039B1946049B04
:101ED00001EBC3020392109A02EBC30310930A9B17
:101EE00013F0030321D0029E109F039996F900205E
:101EF00038880988013B9BB210FB025511FB024454
:101F00009BB1039996F9012078884988012B10FB31
:101F1000025511FB024408D0039A96F90230B988A1
:101F2000928811FB035512FB0344119945FA01F302
:101F300003F307032B9A0C4102F8013B04F3070358
:101F400019992B920B701A9B2B9A134418461FB0A9
:101F5000BDE8F08F1946CDE9041B129B109ACDF80D
:101F60001CA0C3E6CDF808A02C46B8E72DE9F04F39
:101F70002DED048B9BB09346BDF8AC70BDF8A0402E
:101F80000797BDF8B4701497BDF8B870129708EEB3
:101F9000904ABDF8C070BDF8A450BDF8A8600D9778
:101FA00002F0030204F001040F4652EA04010C950A
:101FB0000B960590139340F0DC83002E00F0D48341
:101FC0007442A0B205FB05F2319C159115FB05F397
:101FD0000BFB02F213FB0BF304EB82020E929AB29C
:101FE00008EE102A119010900B464FEA4B09A246BA
:101FF000CDF828B00D9A002A54D0079A0C9903FB0B
:1020000002130B9900220992A3EB01081346BDF9B4
:1020100040200F92119A08920F9A424531DA07999F
:102020000C98BDF92060CDF8188003FB01030B99D3
:1020300015465C1AA6421DDA002D02FB07F8C0F215
:10204000B982974240F39A82B346B446BBF1000F7F
:1020500050464A464FF0000102DB674500F3B88264
:10206000FEF760FA0BF1010B0FFA8BFB5C45CA44DB
:10207000DC46EBDC069B01352DB29D422A46D9DBBE
:1020800098460E9B534500F0DA82099B01331AB241
:10209000DDE907130B440D9909929BB28A4208931C
:1020A0001346B9DB159B079901331AB2109B1592A1
:1020B0000B440B999BB28A42109313469ADBDDF8CE
:1020C00028B00E460D9A921B9A42119240F333812A
:1020D0000C9A07980BFB02F4154612FB02F1159AB5
:1020E00012FB00F2204600FB05F011FB0BF1319DC5
:1020F000921B92B289B205EB8000169208EE104A4C
:10210000620009EE101A09920F904FEA4B081A4626
:10211000D1460B9B002B00F01983079B02FB03F3B6
:102120000B9A1793991A0C9B5242CB18069393B2B1
:1021300000241093BDF958300A940E930E9B069913
:102140008B4237DA079A0C9904FB02140B9AA51AF2
:10215000BDF9402008921E469A46089BAB4223DAFE
:102160000AFB07FA1C469C4607E0013424B2FEF73E
:10217000D9F9AC42C144A44616DA002C42464FF0CD
:1021800000014846F1DB6745EFDD059B0AEB0C00DB
:102190000134494624B20BFB00305A46FFF794FC49
:1021A000AC42C144A446E8DB069B013636B29E42EF
:1021B000B246D2DB0F9B4B4500F01E820A9A07996C
:1021C000013213B2109A0A930A4492B210920B9AF7
:1021D00093421C46B2DB119A93423EDA179B0B9A4C
:1021E000DDF814A0CDF820809D1A0C9B4E461D44AE
:1021F0000E9BAB4222DA079ADDF82C8004FB02F436
:102200009946184618EE102A2B4635461E4607FBFF
:102210000040A0EB08000BFB00A0294609F10109D2
:1022200006920FFA89F9FFF74FFC099B069AB14510
:102230001D444846EBDB33462E461D460F9BB342FA
:1022400000F062820A9B119A01331BB293420A93F7
:102250001C46CDDBDDF82080B1460D9B19460A9B5C
:10226000994259DD079A179913FB02F20B9BC91A81
:10227000D21A0C9BCB18069393B21093069B194667
:102280000E9B994238DD079A0A990C9801FB0205CA
:102290000B9AAD1ABDF9402008921E469A46089B3B
:1022A0009D4223DD0AFB07FA1C469C4607E00134E9
:1022B00024B2FEF737F9AC42C144A44616DA002C2A
:1022C00042464FF000014846F1DB6745EFDD059BD4
:1022D0000AEB0C000134494624B20BFB00305A468D
:1022E000FFF7F2FBAC42C144A446E8DB069B013693
:1022F00036B29E42B246D2DB0F9B4B4500F0E381E3
:102300000A9A0799013213B2109A0A930A4492B2B8
:1023100010920D9A9342B1DB159A0799013213B2CC
:10232000169A15930A44119992B28B4216921A4644
:10233000FFF6EFAECA460D9A9A4240F383800C9A9C
:10234000079C319DCDF828B002FB02F012FB02F190
:10235000159A12FB04F20B9C11FB0BF1121B92B2AB
:102360000BFB00F0644289B205EB8000109208EE8E
:10237000101AA2B20E9011924FEA4B09079A0C99CB
:1023800003FB02130B9900220992A3EB01081346E9
:10239000BDF940200F92119A08920F9A904531DDB5
:1023A00007990C98BDF92060CDF8188003FB010354
:1023B0000B9915465C1AB4421DDD002D02FB07F88F
:1023C000C0F2EA80974240F3CB80B346B446BBF1FB
:1023D000000F50464A464FF0000102DB674500F30C
:1023E0000181FEF79FF80BF1010B0FFA8BFB5C45A7
:1023F000CA44DC46EBDC069B01352DB29D422A46E1
:10240000D9DB98460E9B534500F03B81099B013375
:102410001AB2DDE907130B440D9909929BB28A4267
:1024200008931346B9DB159B079901331AB2109B29
:1024300015920B440D999BB28A42109313469DDB73
:10244000DDF828B0319B534500F0848018EE900AE7
:1024500000287FD00C9B129C139E03FB0BFA03FBFE
:102460000AFACAF38F0A13FB03F90AF1FF330122B8
:102470009BB21344A2402C9CCDF828A019FB0BF969
:1024800004F1FF3B2F9C204408909800069031985F
:1024900009F0030900EBC30309F1FF3109938BB283
:1024A000059353080793149B1BF9014F9C40079B0E
:1024B0001C440A9B002B00F05481069B319F06EBC5
:1024C00003083146042219A801F085FF199B2FFA51
:1024D00083FA0422394619A84FEA332316442FFA07
:1024E00083F501F078FF199B2AFB03440422B918F5
:1024F00019A801F070FF0837199B25FB0344B0456C
:10250000DFD1099BB9F1000F00F0198198F9002083
:10251000198811FB0244059A62B198F90120598883
:10252000B9F1020F11FB024404D09A8898F90230E5
:1025300012FB0344059B5E1C4644129B44FA03F3C2
:1025400003F307032F9A02F8013B13462F92089AD0
:102550009342A8D100201BB0BDEC048BBDE8F08FE6
:10256000B04608F1010850464A4600210FFA88F8A3
:10257000FDF7D8FF4445CA44F3DC3CE7B04608F118
:10258000010850464A4600210FFA88F8FDF7CAFFB5
:102590004445CA44F3DC6DE5B04608F101085046F5
:1025A0004A4600210FFA88F8FDF7BCFF4445CA44AB
:1025B000F3DC20E7B04608F1010850464A46002106
:1025C0000FFA88F8FDF7AEFFA045CA44F3DB51E5EA
:1025D00005990A9A08EB0C0002FB00105146FFF720
:1025E00073FA3FE505990A9A08EB0C0002FB00100C
:1025F0005146FFF769FAF6E62F9B03932C9B029353
:10260000129B0193149B3199009318EE902A19EEB6
:10261000103A139800F0B0F80A9B0799DDF8C490BF
:102620002F9001331AB2109B0A920B449BB2109365
:102630000B9B9A421446FFF681AD1346CBE52F9BC8
:1026400003932C9B0293129B0193149B319900934B
:1026500018EE902A18EE103A139800F08DF8099BA6
:10266000DDF8C4A02F9001331AB2DDE907130B4443
:102670000D9909929BB28A4208931346FFF6CCAC9F
:1026800010E52F9B03932C9B0293129B0193149BA9
:102690003199009318EE902A18EE103A139800F032
:1026A0006BF8099BDDF8C4A02F9001331AB2DDE965
:1026B00007130B440D9909929BB28A420893134663
:1026C000FFF66BAEAFE62F9B03932C9B0293129BFE
:1026D0000193149B3199009318EE902A19EE103A49
:1026E000139800F049F80A9B0799DDF8C4902F90E1
:1026F00001331AB2109B0A920B449BB210930D9BAC
:102700009A42FFF6BBAD07E62F9B03932C9B0293E7
:10271000129B0193149B009318EE902A19EE103A25
:102720003199139800F028F80A9B119A2F900133E1
:102730001BB293420A931C4603DA319E58E5464683
:10274000FBE6DDF82080DDF8C49086E5079B02FB00
:1027500003F317930B9B0A931C46BDF958300E9355
:102760003CE5319BB046CDE6DDF8C4A01596334676
:10277000A8E46FF00200EEE62DE9F04F9DB081462F
:102780002998BDF89840BDF89C6010941196189255
:102790000F9109931044002A00F02C810F461C462B
:1027A0009B0804F00305013A07EB44041393013B33
:1027B00022F00101274619929BB201220D95159432
:1027C0006C1E0F9D134405EBC305B24001449E00EF
:1027D00007EBC30316930B1D1493831C0A93530832
:1027E0001293A3B20E93299B0C9602330B93289B52
:1027F00017950893089A139992F9003092F901708D
:10280000109A93409740129A134407EB020B099ACF
:102810004A440792002900F0F0800C99DDF854A09A
:10282000CDF810B0494406910F990192CDE902B359
:10283000CB468946494604221BA8059301F0CBFDEF
:10284000514604221BA81B9E01F0C5FD59460422D7
:102850001BA81B9F01F0BFFD01991B9D2FFA85F856
:1028600004221BA801F0B7FD019B1B9C2FFA84F2E8
:10287000043301934FEA3525059B2FFA85F50BF1BB
:10288000040B4FEA34242FFA84F428FB0633059313
:10289000039B28FB0738049B22FB06330298049312
:1028A00022FB0707042209EB02011BA801F093FD9C
:1028B0000AF104011BA804221B9E09F1080901F07A
:1028C0008AFD0AF1080A1B9A059B25FB063325FBA6
:1028D00002800499039024FB0611049124FB0272E8
:1028E0000292069A9345A5D1079A8B460C990A4401
:1028F0000792DDE916210D9F002F48D00698B1F907
:10290000005090F900600798039F90F90000B2F919
:10291000004015FB063315FB00BB029D14FB067639
:102920000E9F039614FB005502955FB3069C079813
:1029300094F90170B1F90250B2F9024090F9010026
:1029400015FB073314FB076615FB00BB0D9F029DAB
:10295000039614FB0055022F029513D0B1F9040021
:10296000079991F90240B2F90410069A92F90220EF
:1029700010FB04BB10FB023311FB045411FB026279
:10298000029403920E9A0699013211440691119A0B
:10299000134103F307030B994BFA02F701F8023CCA
:1029A000134607F30707039A01F8017C42FA03F87C
:1029B00008F307080A9A029E02F8028C1E4106F3E9
:1029C0000706931C099802F8016C069A0A930244C0
:1029D00091468A1C0B92089A02320892149A9342EA
:1029E0007FF408AF199B189A23F0010302331344B4
:1029F000299AD0181DB0BDE8F08FCDE902B3159A21
:102A00000F99CDF8189076E7F0B58B0883B00E4695
:102A100004463BD05D1EADB2013500EB85050027B5
:102A2000042221460DEB020001F0D5FC019A02F0D0
:102A300080334FEAF313C7FA13F322EA03030422A5
:102A400020460DEB02010434019301F0C4FCAC42BA
:102A5000E6D116F0030617D095F90030013E002BA1
:102A6000B8BF0023B6B2B8BF2B706EB195F9013074
:102A7000002BBCBF00236B70012E05D095F90230EE
:102A8000002BBCBF0023AB7003B0F0BD0546E0E7F0
:102A90002DE9F04F2DED028B99B0032A1093BDF86C
:102AA00090301193BDF894300993BDF898300A9393
:102AB000BDF89C300693BDF8A4301293BDF8A83041
:102AC0000E93BDF8B03008900B9340F07081002B4E
:102AD00000F00581099B2D9C8A460A9903FB03F2AD
:102AE00013FB03F34842159202EB420103EB43024E
:102AF00080B204EB810192B2002308EE102A0C91FF
:102B000013900F90194622460698099C01FB00413C
:102B10000A9CA1EB0409BDF93C100D9100209BB269
:102B2000139914930790034605910D9949452BDAA3
:102B30000698099CBDF9148003FB00430A980F46D0
:102B40001E1A0B46B0451ADA002F03FB0AFBC0F22F
:102B5000CC809A4540F3DA8015464446414600232E
:102B6000002C02DB8A4500F3E280A91D2B60AB80BC
:102B70000A46013424B2B4420D462146F0DB013747
:102B80003FB24F453B46DDDB0C9B934200F0EA80B1
:102B9000079B013319B2DDE9053003440B98079117
:102BA0009BB2814205930B46BFDB0F990698149B9D
:102BB000014401330B981BB289B283420F9119462D
:102BC000A2DB2D9B934200F08A801198002800F030
:102BD0008680159B0E9C774F109D03EB430B18EEE0
:102BE000102ACBF38F0B0BF1FF3302F0030A9BB2D9
:102BF00001221344A240289CCDF82CB0013C06943D
:102C00002B9C20440790980009902D980AF1FF31E1
:102C100000EBC3030A938BB2059353080893069BFA
:102C200013F9014F0693129B9C40089B1C440B9B7D
:102C3000002B00F0B980099B2D9E05EB0309294666
:102C4000042217A801F0C7FB179B2FFA83F04FEA65
:102C500033232FFA83F303EA070804221FFA80FBC9
:102C6000314648EA104817A84BEA034B154401F0D7
:102C7000B2FB179B2BFB03440422B11817A801F0E9
:102C8000AAFB0836179B28FB0344A945D7D10A9B0A
:102C9000BAF1000F00F0868099F90020198811FB25
:102CA0000244059A62B199F901205988BAF1020FDC
:102CB00011FB024404D09A8899F9023012FB0344B4
:102CC000059B5D1C4D440E9B44FA03F303F307037D
:102CD0002B9A02F8013B079B2B9293429FD1002035
:102CE00019B0BDEC028BBDE8F08F434600210133E3
:102CF0001BB2B3421160918002F10602F7DB01378B
:102D00003FB24F453B46FFF61DAF3DE7434600212E
:102D100001331BB2B3421160918002F10602F7DB6E
:102D200001373FB24F453B46FFF60CAF2CE7089BFF
:102D3000594401EB41011944042217A801F04BFB4F
:102D4000179A2FFA82F0010C09044FEA32222FFA67
:102D500082F292B20A43A91DC5F8022028800A46D1
:102D6000002306E72B9B0393289B02930E9B019362
:102D7000129B119A2D990093109818EE103AFEF7B5
:102D8000DDFE079B2B9001331AB2DDE905310B44C0
:102D90000B9907929BB28A42059313462D9AFFF630
:102DA000C4AE02E74D468EE72D9BA94670E76FF053
:102DB000020095E70000FFFF2DE9F04F93B08B462E
:102DC000BDF87040BDF874500594209904959C0896
:102DD0000D9316460F92FEF777FE002C00F003814C
:102DE000B30806F0030208930392013B013A91B243
:102DF0009BB2012213448818AA401D010995209D09
:102E00000B911E9905EBC303013CA4B208310A9350
:102E100083000C9301EB84030793530806931E9BD6
:102E20000E94043301931F9B04330293019B13F907
:102E3000049C13F9034C13F9026C13F9015C059B14
:102E400009FA03F99C409E409D40069B99441C440E
:102E50001E441D44089B002B00F04181099BDDF8B6
:102E600080800BEB030A4146042211A801F0B3FA5B
:102E70000422594611A8119F01F0ADFA119B2FFAB7
:102E800083F24FEA33232FFA83F322FB079923FBC4
:102E9000074404220BEB020111A801F09CFA119BDC
:102EA0002FFA83F24FEA33232FFA83F322FB0766CC
:102EB00023FB0755042208EB020111A801F08BFA4D
:102EC0000BF1080111A80422119F01F084FA119B53
:102ED0002FFA83F208F108084FEA33232FFA83F31D
:102EE00022FB079923FB074404220BF10C0111A8D4
:102EF00001F071FA119B2FFA83F20BF1100B4FEADC
:102F000033232FFA83F322FB076623FB0755DA45A9
:102F1000A9D10A9A039BE3B3B2F900309BF90310DD
:102F20009BF900C09BF901709BF9020013FB01554E
:102F30000B9913FB0C9913FB074413FB006631B389
:102F4000B2F902309BF904C09BF905709BF90600A9
:102F50009BF9071013FB0C9913FB074413FB006646
:102F600013FB0155039B022B11D0B2F904309BF9DE
:102F700008709BF909009BF90A109BF90B2013FBC1
:102F8000079913FB004413FB016613FB02550C9BCE
:102F90009B44049949FA01F909F30709029B0C4182
:102FA00003F8049C04F3070403F8034C0E4106F3F2
:102FB000070603F8026C0D4105F3070503F8015CF1
:102FC000019904330293079B04318B4201917FF4F2
:102FD0002DAF0E9B1E9A013302EB83021E921F9AA5
:102FE00002EB83031F930D9B13F0030373D00F9920
:102FF00004988A080392013B013A01F003089BB24E
:10300000012192B20A440B4481401F98CDF81C80E4
:10301000C318069393000893209B08F1FF3A03EB33
:10302000C20309931FFA8AFA4B08DDF878800293ED
:10303000CDF804A08146059B18F9014B9C40029BEA
:103040001C44039B002B4ED0089B209E0BEB0307D8
:103050005946042211A801F0BEF9119B2FFA83FAF8
:103060000422314611A84FEA332393442FFA83F503
:1030700001F0B1F9119B23FB0A440422B11811A8F5
:1030800001F0A9F90836119B23FB0544BB45DFD1AC
:10309000099B079828B397F90020198811FB02446F
:1030A000019A5AB197F901205988022811FB02446C
:1030B00004D09A8897F9023012FB0344019B03F174
:1030C000010BBB44049B1C4104F3070409F8014BAA
:1030D000069B9945AFD1002013B0BDE8F08F209A30
:1030E00018E7BB46EEE7209B5F46D2E72DE9F04F9D
:1030F000970885B090460546894662D0013FBFB229
:103100000137BB00019300EB87070E4604222946D6
:1031100003A801F060F93146042203A8039C01F0E2
:103120005AF9039B4FFA84FB58B244F3072A8345AC
:1031300043F3072144F3074E4FEA246C43F307425D
:10314000B8BF60F307048A45B8BF61F30F24964502
:10315000B8BF62F31744BCEB236F06F104064FEAD5
:10316000236B29DA6BF31F6445F8044BBD42CDD1C4
:10317000019B994418F003081BD099F9003097F986
:10318000002008F1FF389A42B8BF3B701FFA88F35D
:103190007BB199F9012097F901109142B8BF7A707B
:1031A000012B06D099F9023097F902209A42B8BF54
:1031B000BB7005B0BDE8F08F45F8044BBD42A5D10A
:1031C000D6E70746D6E700BF2DE9F04F2DED028B7D
:1031D00087B082460293BDF84C300393BDF850305F
:1031E000BDF84880019193460093002900F09D802E
:1031F000002B00F09380002305931F46019B07FBE3
:1032000003F73B440BFB03A3002604933346039AC6
:10321000019CFD1802FB03F3B3EB0800029A5CBFAC
:10322000F918A1EB08010BFB05A5104454BF0BFBDB
:1032300001A12946A04276DAFC18A4EB0804144444
:103240000BFB04A401EB0B095A46284601F0D1F808
:103250004C4507D949465A462846D944FFF746FF08
:103260004C45F7D8009A013636B296423346CEDB4B
:10327000059B019A01331BB2934205931F46BDDBA8
:10328000019B0099CDF8108003FB03F211FB0BF7B3
:1032900000200BFB02A201FB0BF108EE101A0592B5
:1032A000BFB20246194603FB0BF6CDF804A09946BF
:1032B0008046009B03FB02F5039B03FB02F2169B77
:1032C0000BFB0535049BD21A57BF019B019909FBE3
:1032D00002F10BFB0131029B1A444A45B7BF019B27
:1032E000059C09FB02F20BFB023401EB060A18EE07
:1032F000102A284601F07DF8544507D951463A4630
:103300002846B244FFF7F2FE5445F7D8009B08F177
:1033100001080FFA88F898454246CADB07B0BDECB1
:10332000028BBDE8F08F049C8CE7002BA8D1F5E759
:1033300099B3F0B400236FF07F04C5560133AC425B
:103340001BB2B8BF2C468B42F7DBA4F10805002462
:103350002DB22646012703575B1B83F30303013479
:10336000DBB224B207FA03F38C421E44F3DB0D35C3
:1033700000244FF4801393FBF6F60357EB1A83F304
:103380000503DBB246FA03F303F30703671C135587
:103390003CB28C42F1DBF0BC7047FFDEF0B4044677
:1033A000012914F9016B0ED04718002114F9015BB3
:1033B000AE4202DA611E2E46091AA742F6D11670F5
:1033C000F0BC1960704700211670F0BC196070479E
:1033D0000649074A074B9B1A03DD043BC858D050E7
:1033E000FBDC00F013F8FDF72BF80000E0560000BE
:1033F00000000020C4630020FEE7FEE7FEE7FEE7D2
:10340000FEE7FEE7FEE7FEE7FEE7FEE730B4394BF6
:103410001B68082B19D0384AD2F8883043F470035F
:10342000C2F88830BFF34F8FBFF36F8F4FF0102378
:10343000D3F80022002A2CDBD3F80432002B28DB3F
:103440002E4B2F4A1A6030BC70472E4B1B68002B46
:10345000E1D14FF080422C482C4CC2F80C312C4961
:10346000C2F810312B4DC2F83835FB222A4B2560AB
:10347000C0F818250A681B6800F5D33022F00F0247
:10348000403003F00F0313434FF400720B600260EF
:10349000C1E7224A0123C2F80435D2F80034002BD8
:1034A000FBD04FF0102312211C4AC3F80012D2F8AF
:1034B0000034002BFBD04FF010231221174AC3F821
:1034C0000412D2F80034002BFBD000231349C2F8B9
:1034D0000435D1F80034002BFBD0BFF34F8F0649E1
:1034E0000F4BCA6802F4E0621343CB60BFF34F8F07
:1034F00000BFFDE73001001000ED00E0B8630020E0
:103500000090D0033401001000F000408C560040C1
:10351000E40E0040488103005802001000E0014022
:103520000400FA0503685A004CBF43F0004323F03F
:1035300000431844704700BF2DE9F84329B34F1EDC
:10354000044615463E464FF0000808EB060101EB25
:10355000D171491004EBC1094846FFF7E3FF034668
:10356000C80008308F42204409D0AB4209D8FFF789
:10357000D9FF0138A8420AD201F10108E5E7AB42C0
:1035800005D9884501D04E1EDFE74FF000094846B7
:10359000BDE8F883012807D0022807D0044B002893
:1035A0000CBF184600207047024870470248704719
:1035B000593C00005D3C0000613C000030B5234BED
:1035C00083B004468D1E3BB301A92846AFF30080AB
:1035D000E8B101992A46FFF7AFFF0146B8B1FFF7FE
:1035E000A1FF4B68A064012B2BD0002B01F104003C
:1035F00023DBFFF797FF0023C4E913030368002BC5
:1036000010DBFFF78FFF2061002003B030BD0023E7
:103610000920236103B030BD0D490E48091AC910B5
:103620000191D7E7C3F30360FFF7B4FF00282061DF
:1036300014BF0020092003B030BD0123C4E91303E7
:10364000DCE7002323610520DFE700BF0000000066
:10365000E0560000105600000368DA0710B5044673
:1036600006D49B0700F1480009D500F04BFC236805
:10367000590709D51A070ED5DB0613D510BD00F082
:1036800039FC23685907F5D404F1D00000F042FC5E
:1036900023681A07F0D404F5A87000F043FC2368EF
:1036A000DB06EBD404F5E870BDE8104000F07EBC0A
:1036B0000346006800B11844704700BF09207047F6
:1036C000704700BF70B504460E46316C2046FFF7C8
:1036D00075FF054688B9336C63613246236921461C
:1036E000012098470828F0D0072806D12846316CD9
:1036F000FFF7E6FF301D00F0F1FB00F065FE00BFB4
:103700002DE9F0470D1D064614460FCDADF5727D2F
:103710000DF10C0CACE80F000FCDACE80F000FCD95
:10372000ACE80F0095E80F0002ADF768D6F81880F6
:103730008CE80F0000232B6021E02B6C73614FF4A9
:10374000F07229467AA800F046FE33697AAA31461B
:1037500050469847889BCDE9005821466B648146C6
:10376000334632460120B8470446E8B94FF4F072B8
:103770007AA9284600F02FFEB9F1080F1BD1296C59
:103780003046FFF71BFF09345FFA84FA81460028B0
:10379000D3D0AB6B4AF01001CDE9005832466B64D0
:1037A00001203346B84708B14FF0090948460DF5E6
:1037B000727DBDE8F087B9F1070FF5D12046296C7D
:1037C000FFF77EFF03A800F089FB00BF406C704745
:1037D000F0B5CB6B0B640E1D0F4605460FCEF9B04E
:1037E00001AC0FC40FCE0FC40FCE0FC496E80F006C
:1037F0004FF0FF3684E80F00009606E02B696A461A
:10380000294698470828044608D110992846FFF70A
:10381000D5FE0028F2D0092079B0F0BD6846FFF748
:103820001BFF062CF7D139462846FFF74BFF00BF98
:1038300030B4DD6BC160826119461D64002230BC6A
:103840005EE700BF70B5C66843690B64AEB9036933
:103850000A4604460D46014602209847072805D02F
:1038600008280FD129462046FFF72CFF3046296C47
:10387000FFF726FF281D00F031FB0122FFF740FF74
:1038800000F0A2FD00F0A0FDC2681AB1CA6B0A6484
:10389000002235E79CE700BF704700BF8368014600
:1038A0000BB1012018477047012912D009D873B90C
:1038B0000F2A0CD800EB820218465368009A136056
:1038C00070470339012994BF01200220704702206C
:1038D00070470846704700BF10B584B0002303ACA2
:1038E0000A4600941946FFF7DFFF039804B010BDA5
:1038F000012912D009D873B90F2A0CD800EB820025
:10390000009A12684260184670470339012994BF33
:10391000012002207047022070470846704700BF10
:1039200010B584B0002303AC039200940A461946F4
:10393000FFF7DEFF04B010BDF0B5D36B1364151DA7
:103940008C4606460FCDADF50F7D17AC0FC40FCDDD
:103950000FC40FCD0FC495E80F004FF0FF3784E878
:103960000F006546169710E0FFF7DAFF294616A804
:10397000B047034616AA6946082083B9049B9847B6
:10398000052804460CD0092809D026996846FFF777
:1039900015FE03466A460C2116A8002BE4D0092424
:1039A00016A8FFF759FE20460DF50F7DF0BD00BFAC
:1039B0002DE9F04FCC6C89B00D4654F8041B0694E9
:1039C000174600F003081E46002B79D00B0CDAB224
:1039D00009048DF81D30022304EB820405918DF853
:1039E0001C302B6DB8F1020F08BFAC6B13F0010354
:1039F0000CD0384605A900F073FB18B9082009B0AF
:103A0000BDE8F08F092009B0BDE8F08FD4F800A020
:103A1000BAF1000FEDD0019300F008030293022EDB
:103A20004AD0B4F800A0B4F802900434AA6C29F08B
:103A3000010B0F2138469344FFF74EFF834539D8D9
:103A40002AF001025A44824294BF002001204FEA2A
:103A5000490303F002030AF0010A43EA0A03012BB7
:103A600049D0022B32D0002BCCD1B8F1000F02D0BC
:103A7000002840F0CD800434D4F800A0BAF1000F43
:103A8000CDD105A9384600F02BFB0028BAD1019B07
:103A9000002BB3D00F213846FFF71EFF0E21024640
:103AA0003846FFF73DFF38466A4A0F21FFF738FFD7
:103AB0000720A8E70020CAE7D4F804900834B5E747
:103AC000090203230591ADF81C308AE7236823F02F
:103AD000004BB8F1000F45D128B1029A002A5CD002
:103AE000BBF1000F74D0002B00DA04340BF1010B92
:103AF00004EB8B04C0E7B8F1000F19D1B0B1D4E9E1
:103B00000023991C4FEAD2723FF47CAF05F15801B3
:103B10000133049100F09080201DFFF7C9FD04AB34
:103B200001462846AFF3008000285BD10834A3E7A4
:103B30000D213846D5F82090FFF7CEFE8145F5D10E
:103B4000AB6A9C42F2D12046FFF7ECFC0F21024603
:103B50003846FFF7E5FE38462A460021FFF7E0FE2B
:103B6000072050E70D213846D5F82090FFF7B4FE26
:103B7000814501D02368B6E7AB6A9C42FAD10422A2
:103B80000021C5E90B12A318C5F828B06B632368A0
:103B90008B4259DB01230193A8E705F15803CDF8C7
:103BA0000C8004F1040AB04691461E460DE00496CE
:103BB000FFF77EFD04AB014600222846AFF30080EC
:103BC00009F101090AF1040AE8B9D9455046EED1D4
:103BD00038460D21FFF780FE049B2862C5E90934B1
:103BE000062010E781460D213846FFF775FEB9F132
:103BF000020F286225D12B46049A43F82C2F6B62C2
:103C0000AC620620FFE646462368DDF80C806AE7D2
:103C10002046FFF787FC04340246AC63284614466E
:103C2000AFF3008000283FF4EDAE384622460F2166
:103C3000FFF776FE0720E6E638460D21FFF74CFE3B
:103C40002862049B6B62DBE70BF1010004EB800050
:103C50007AE700BF000000000023A9E60123A7E6E1
:103C60000223A5E62DE9F0430646C3B015461C46DF
:103C7000042900F2B980DFE801F09A53B729030064
:103C8000002C40F0B180102A00F2AE800368D80604
:103C900000F1F38020AF384600F092F9B06B0023BA
:103CA000012404FA03F22A42014604D051F8042BFD
:103CB00047F8232008460133042BF2D1B06338467D
:103CC00000F074F9002043B0BDE8F083032C40F00D
:103CD0008B8094B204EB1243102B4FEA124500F292
:103CE000838003681F0700F1D08020AF384600F0C2
:103CF0003BF907EBC501B56B54B10B46E81A01EB74
:103D0000C401E4001A5843F8042B8B42FAD125442D
:103D10003846B56300F006F9002043B0BDE8F083F3
:103D2000012C4FEA124895B25AD0052C5CD108EB11
:103D30000509B9F1200F57D8B8F10F0F77D9A94667
:103D4000002D40F08880B36B6DB320AF4FF00009B9
:103D500007EBC807043F03EBC50553F8041B47F8FE
:103D6000041FAB42F9D1B9F1000F0FD06F464146A5
:103D7000102938BF102107EBC101843903EBC905B5
:103D800053F8040B41F8040FAB42F9D1012C00F0B9
:103D90008480B8F10F0FB56345D9B9F1000F02D097
:103DA000684600F0B7F8002043B0BDE8F083DCB906
:103DB000876B2346012094B206F1040C00FA03F24B
:103DC0002242394604D051F8042B4CF823200F46E8
:103DD0000133102BF2D115F40050E4D1B76304E0A5
:103DE00008EB0503102B03D9022043B0BDE8F08394
:103DF000B8F10F0FF8D83368DA0706D5304623F04C
:103E0000030340F8483B00F079F820AF384600F053
:103E100075F8B36B002D99D11D460435B56338464E
:103E200000F068F8BFE720A800F06CF8B5E7B9F13A
:103E3000100F40D9A9F110093368D90708D523F02C
:103E40000103304643F0020340F8483B00F05EF8BF
:103E5000B9F1000F32D033685A0720D4B8F10F0FF0
:103E600025D96F463846C8F1100500F057F8002DE7
:103E7000B36B7FF77CAF20AF6AE723F010033360AA
:103E800006F5E87000F09CF804E723F008030360EF
:103E900000F5A87000F068F827E720AFBDE73046CE
:103EA00023F0040340F8D03B00F038F8D6E720A810
:103EB00000F02CF8D5E74FF00009BDE7B8F10F0F7F
:103EC0003FF641AF20AF384600F020F8B36B002D2D
:103ED0007FF43CAF384600F015F864E700F1340198
:103EE00091E838009C46A6464CF8045D90E8FF0F28
:103EF000E54600BD90EC210B704700BF80EC210B24
:103F0000704700BF90EC200B704700BF80EC200B87
:103F1000704700BFD0EC200B704700BFC0EC200BF7
:103F2000704700BFF0EC0201F0EC0211F0EC02214E
:103F3000F0EC0231F0EC0241F0EC0251F0EC0261E5
:103F4000F0EC0271F0EC0281F0EC0291F0EC02A1D5
:103F5000F0EC02B1F0EC02C1F0EC02D1F0EC02E1C5
:103F6000F0EC02F1704700BFE0EC0201E0EC02115E
:103F7000E0EC0221E0EC0231E0EC0241E0EC025125
:103F8000E0EC0261E0EC0271E0EC0281E0EC029115
:103F9000E0EC02A1E0EC02B1E0EC02C1E0EC02D105
:103FA000E0EC02E1E0EC02F1704700BFB0FC0181FF
:103FB000B0FC0191B0FC01A1B0FC01B1704700BFA1
:103FC000A0FC0181A0FC0191A0FC01A1A0FC01B119
:103FD000704700BFEC4600B52DE900502DE9FF1FEA
:103FE0004FF000032DE90C0001A9FFF7F1FBDDF80C
:103FF00040E012B0704700BFEC4600B52DE900501C
:104000002DE9FF1F4FF000032DE90C0001A9FFF778
:1040100019FCDDF840E012B0704700BFEC4600B577
:104020002DE900502DE9FF1F4FF000032DE90C0092
:1040300001A9FFF729FCDDF840E012B0704700BF8E
:10404000EC4600B52DE900502DE9FF1F4FF00003AD
:104050002DE90C0001ABFFF7EBFBDDF840E012B0FF
:10406000704700BFEC4600B52DE900502DE9FF1F59
:104070004FF000032DE90C0001AAFFF75DFCDDF80D
:1040800040E012B0704700BF027A7AB9437AA3B118
:104090004268013B10B4437213680321141D01727E
:1040A0001A024460026010BC180E70470368013A9F
:1040B00002721A020260180E7047B020704700BFEB
:1040C00000B585B003AA0023009219460C22FFF721
:1040D000EBFB039805B05DF804FB00BFF0E700BF01
:1040E0002DE9F043054685B00E464FF000083046F6
:1040F000FFF7CAFFB028044600F0B280070620D5BB
:1041000000F0F003802B4DD0902B36D0A02B60D048
:10411000B02B74D0C02B00F08B8000F0F803D02BB4
:104120000BD100F00702013242F4002205230121E5
:104130002846FFF797FD0028D9D0092005B0BDE833
:10414000F0830DF10C09002319468700CDF800908B
:104150000D222846FFF7A8FBFFB2039BCDF8009085
:10416000043760064CBFDF1BFF18002319460D22E1
:1041700028460397FFF7BCFBB9E700F00D030D2BB2
:10418000DBD003AF002300F00F021946009728464A
:10419000FFF78AFB0023009719460D222846FFF7F8
:1041A000A7FBA4E73046FFF76FFF24022043B0F5DA
:1041B000004FC2D004010023A2B219462846FFF7DF
:1041C00051FD0028B9D114F4004F18BF4FF0010879
:1041D0008DE7C24302F007034FF47F621A410107E3
:1041E00002F47F624FF0000348BF42F48042194658
:1041F0002846FFF737FD00283FF479AF9DE7B12847
:1042000033D0B22800F08B80B32839D000F0FC0303
:10421000B42B92D000F007020132012342F40022B5
:1042200019462846FFF71EFD00283FF460AF84E7DB
:10423000C62842D0C7284CD000F0F803C02B5BD072
:10424000C82860D0C9287FF478AF3046FFF71CFF3C
:10425000020300F00F0002F470220130024365E710
:10426000B8F1000F18D0002068E73046FFF70CFFC8
:10427000024600283FF461AF10F0F003D0D05CE7B5
:104280003046FFF701FF010300F00F0001F4702139
:10429000421C01230A43C3E703AC43460E224146B6
:1042A00000942846FFF700FB0094284643460F225F
:1042B0004146FFF71DFB404640E73046FFF7E4FE6E
:1042C000010300F00F0001F47021421C03230A4394
:1042D000A6E73046FFF7D8FE024600283FF42DAF90
:1042E00010F0F0037FF429AF04212846FFF7BAFC51
:1042F00000283FF4FCAE20E700F00F020132032358
:1043000042F420228CE73046FFF7BEFE00F0F002B8
:1043100000F00F031032013343EA023206E70023B4
:104320000DF10C090D221946CDF800902846FFF733
:10433000BBFA3046FFF7A8FE02064FF002070CD585
:10434000039B00F07F00B840034430460393FFF71F
:104350009BFE030607F10707F2D4039BCDF80090FC
:1043600000F07F0403F50172BC4000231444194699
:104370000D2228460394FFF7BBFAB8E610B5C26CCD
:1043800084B0536803248DF80C401B0202F108042A
:104390000846D279019301A902948DF80D20FFF708
:1043A0009FFE04B010BD00BF08B5FFF797FE806CFC
:1043B00008BD00BF08B5FFF791FEC06CC37902339A
:1043C00000EB830008BD00BF08B5062000F06CF8C4
:1043D0000120FCF7AFF80A44914200F1FF3300D10D
:1043E000704710B511F8014B03F8014F9142F9D114
:1043F00010BD884210B501EB020402D98442234665
:1044000007D8431EA14208D011F8012B03F8012F51
:10441000F8E7024401468A4200D110BD13F8014D6D
:1044200002F8014DF7E700000FB40A4B13B51C6802
:1044300024B1A36913B9204600F0B2F805AB049A81
:10444000A1680193204600F0CFF902B0BDE810400A
:1044500004B07047000000201F2938B504460D46FF
:1044600004D9162303604FF0FF3038BD426C12B1FF
:1044700052F821304BB9204600F030F82A46014668
:104480002046BDE8384000F017B8012B0AD0591C6F
:1044900003D1162303600120E7E7002442F82540FA
:1044A000284698470020E0E7024B01461868FFF7CE
:1044B000D3BF00BF0000002038B5074D00230446DD
:1044C000084611462B6000F0B3FF431C02D12B6855
:1044D00003B1236038BD00BF1C05012000F098BF68
:1044E000034611F8012B03F8012B002AF9D170477C
:1044F000002310B50446C0E90033C0E904338360EB
:1045000081814366C2818361194608225C30FCF7D1
:1045100009F8054B6362054BA362054BE362054B4B
:104520002462236310BD00BF914D0000B34D000015
:10453000EB4D00000F4E0000014900F0AFB800BF86
:10454000C550000070B54A1E682555430E4605F15A
:10455000740100F0C5F8044640B10021C0E900161E
:104560000C30A06005F16802FBF7DCFF204670BD4F
:10457000014800F0B3B800BF18050120014800F061
:10458000AEB800BF18050120014800F0A7B800BF71
:1045900013050120014800F0A2B800BF1305012057
:1045A00010B50446FFF7F0FFA3691BB1BDE810404A
:1045B000FFF7F0BFC4E912332365134B134A1B689E
:1045C000A262A34204BF0123A361204600F020F8A9
:1045D0006060204600F01CF8A060204600F018F84B
:1045E0000022E06004216068FFF782FFA0680122DA
:1045F0000921FFF77DFFE06802221221FFF778FF13
:104600000123A361D2E700BF9454000039450000A4
:10461000F8B50746FFF7ACFF1E4B1E68B36913B928
:104620003046FFF7BDFF4836D6E90134013B03D5DC
:1046300033680BB33668F7E7B4F90C50D5B9164BAD
:10464000E36004F15800656600F047F8FFF796FF55
:10465000C4E90155C4E904552560A561082229462D
:1046600004F15C00FBF75EFFC4E90D55C4E9125587
:104670002046F8BD6834D9E704213846FFF762FFC9
:10468000044630600028D5D1FFF778FF0C233B604B
:10469000EEE700BF945400000100FFFF2DE9F8434E
:1046A0000646884600F148040027D4E90195B9F18F
:1046B000010905D52468002CF7D13846BDE8F883F8
:1046C000AB89012B07D9B5F90E30013303D0294648
:1046D0003046C04707436835E9E770477047704781
:1046E000F8B5CD1C25F0030508350C2D38BF0C2579
:1046F000002D064601DBA94203D90C2333600020BC
:10470000F8BD00F0E5FD21490A6814469CB9204F28
:104710003B6823B92146304600F02AFB3860294621
:10472000304600F025FB431C23D10C233360304678
:1047300000F0D4FDE3E723685B1B17D40B2B03D9F0
:1047400023601C44256004E06368A2420CBF0B6038
:104750005360304600F0C2FD04F10B00231D20F031
:104760000700C21ACCD01B1AA350C9E722466468BE
:10477000CCE7C41C24F00304A042E3D0211A304645
:1047800000F0F6FA0130DDD1CFE700BF8C04012044
:10479000900401209368013B002B10B4936008DA69
:1047A0009469A34201DB0A2903D15DF8044B00F0B0
:1047B00033BB1368581C1060197008465DF8044B31
:1047C0007047F8B506460F461446D518AC4201D1DD
:1047D000002007E014F8011B3A463046FFF7DAFFE5
:1047E000431CF3D1F8BD00002DE9F04F0D469DB0FC
:1047F00014469846064618B183690BB9FFF7D0FEF8
:10480000894B9D421BD175686B6ED90705D4AB8966
:104810009A0502D4A86DFFF761FFAB891B0701D58C
:104820002B69EBB92946304600F048FBC0B16B6EEE
:10483000DC070ED54FF0FF301DB0BDE8F08F7B4B8D
:104840009D4201D1B568DFE7794B9D4208BFF5680D
:10485000DAE7AB899805EDD4A86DFFF740FFE9E7EB
:104860000023099320238DF82930CDF80C803023C4
:10487000DFF8C0818DF82A304FF0010923469A46AF
:1048800013F8012B0AB1252AF9D1BAEB040B0BD08E
:104890005B46224629463046FFF793FF013000F081
:1048A000AA80099A5A4409929AF80030002B00F025
:1048B000A28000234FF0FF32CDE905230AF1010A5F
:1048C000049307938DF853301A935446052214F835
:1048D000011B584800F0ACFC049AD8B9D10644BF7B
:1048E00020238DF85330130744BF2B238DF853300A
:1048F0009AF800302A2B15D0079A544600204FF022
:104900000A0C214611F8013B303B092B4ED9B0B1BE
:10491000079214E0A0EB080309FA03F3134304938E
:10492000A246D2E7039B191D1B680391002BBBBF56
:104930005B4242F0020207930793B8BF04922378C8
:104940002E2B0CD163782A2B35D1039B1A1D1B68A3
:104950000392002BB8BF4FF0FF3302340593DFF80A
:10496000E4A021780322504600F062FC40B14023CD
:10497000A0EB0A0003FA00F0049B03430134049304
:1049800014F8011B2C488DF82810062200F050FC6A
:1049900000283FD0294B1BBB039B073323F00703A1
:1049A00008330393099B3B44099367E70CFB0232EE
:1049B0000C460120A5E700230134059319464FF06A
:1049C0000A0C204610F8012B303A092A03D9002B93
:1049D000C5D00591C3E70CFB012104460123F0E794
:1049E00003AB00932A46164B04A93046AFF3008070
:1049F0000746781CD6D16B6ED90705D4AB899A05CA
:104A000002D4A86DFFF76BFEAB895B063FF512AFD2
:104A1000099811E703AB00932A46094B04A93046D5
:104A200000F080F8E4E700BF80550000A0550000CA
:104A300060550000C0550000CA550000000000008D
:104A4000C3470000C65500002DE9F04716469946B9
:104A50008A680B69DDF820809342B8BF1346336043
:104A600091F8432007460C460AB1013333602368AE
:104A7000990642BF336802333360256815F0060596
:104A800006D104F1190AE36832689B1AAB4226DCAE
:104A900094F84320131E226818BF012392062BD4DA
:104AA00004F1430249463846C04701301ED023680E
:104AB000E568326803F00603042B08BFAD1AA3684B
:104AC00022690CBF25EAE57500259342C4BF9B1AF5
:104AD000ED1800261A34B5421AD1002008E001234F
:104AE000524649463846C047013003D14FF0FF30A7
:104AF000BDE8F0870135C6E7E1185A1C302081F87F
:104B00004300224494F8451082F843100233C7E76B
:104B10000123224649463846C0470130E6D00136D7
:104B2000D9E700002DE9FF470C469146277E0C99F6
:104B3000782F80469A4604F1430207D8622F0AD89C
:104B4000002F00F0D880582F00F0A38004F1420617
:104B500084F842703AE0A7F16303152BF6D801A060
:104B600050F823F0BD4B0000D14B00004D4B00002E
:104B70004D4B00004D4B00004D4B0000D14B000051
:104B80004D4B00004D4B00004D4B00004D4B0000C5
:104B9000DD4C0000014C0000BF4C00004D4B0000FC
:104BA0004D4B0000FF4C00004D4B0000014C00003D
:104BB0004D4B00004D4B0000C74C00000B681A1D08
:104BC0001B680A6004F1420684F842300123A3E026
:104BD000256808682E0600F104030AD505680B60F5
:104BE000002D03DA2D236D4284F843305E480A23FA
:104BF00019E015F0400F05680B6018BF2DB2EFE704
:104C00000B682568181D0860280601D51D6802E09C
:104C10006906FBD51D8854486F2F0CBF08230A2353
:104C2000002184F843106668A660002EA2BF2168A8
:104C300021F0040121600DB9002E4DD01646B5FBC0
:104C4000F3F103FB1157C75D06F8017D2F46BB4208
:104C50000D46F4D9082B0BD12368DF0708D523694B
:104C600061689942DEBF302306F8013C06F1FF3649
:104C7000921B2261CDF800A04B4603AA2146404674
:104C8000FFF7E2FE01304CD14FF0FF3004B0BDE839
:104C9000F087354884F8457023680E681F0656F87B
:104CA000045B0E6014D5D90744BF43F02003236092
:104CB0001DB9236823F0200323601023B0E7236885
:104CC00043F0200323607823284884F84530E3E745
:104CD0005E0648BFADB2E6E71646BBE70B6826683E
:104CE00060691D1D0D6035061B6801D5186002E066
:104CF0007106FBD51880002323611646BAE70B68BE
:104D00001A1D0A601E6862680021304600F090FAA1
:104D100008B1801B606063682361002384F843301E
:104D2000A8E72369324649464046D0470130ABD018
:104D300023689B0713D4E068039B9842B8BF1846CA
:104D4000A4E70123324649464046D04701309BD074
:104D50000135E36803995B1AAB42F2DCEBE700250F
:104D600004F11906F5E700BFD1550000E255000037
:104D700038B5064D0023044608462B6000F070FB52
:104D8000431C02D12B6803B1236038BD1C050120F0
:104D900010B50C46B1F90E1000F0F6FA0028ABBFC2
:104DA000636DA3891B1823F48053ACBF6365A38193
:104DB00010BD2DE9F0411F468B89DB0505460C46E9
:104DC000164605D5B1F90E100223002200F0B6F9FF
:104DD000A389B4F90E1023F48053A38132463B46D5
:104DE0002846BDE8F041FCF721BC10B50C46B1F9EE
:104DF0000E1000F0A3F9431CA38915BF606523F4CE
:104E0000805343F48053A38118BFA38110BDB1F92F
:104E10000E1000F0C1B80000F8B50E461446054665
:104E200018B183690BB9FFF7BBFB214B9C422BD117
:104E30006C68A369A360A3891A072FD523696BB394
:104E400023692068C01A6369F6B28342374604DCDE
:104E50002146284600F036F930BBA368013BA36029
:104E600023685A1C22601E7063690130834204D09B
:104E7000A389DB0706D50A2E04D12146284600F077
:104E800021F988B93846F8BD0A4B9C4201D1AC687B
:104E9000CFE7094B9C4208BFEC68CAE72146284689
:104EA00000F00CF80028CBD04FF0FF37EAE700BF46
:104EB00080550000A055000060550000324B70B5D1
:104EC0001D6806460C4625B1AB6913B92846FFF7A5
:104ED00067FB2E4B9C420FD16C68A389B4F90C2060
:104EE00019072CD4DD0611D40923336042F04003A6
:104EF000A3814FF0FF303EE0254B9C4201D1AC68CE
:104F0000EBE7244B9C4208BFEC68E6E7580712D554
:104F1000616B41B104F14403994202D0304600F084
:104F2000E3F900236363A38923F02403A38100230F
:104F3000636023692360A38943F00803A381236985
:104F40004BB9A38903F42073B3F5007F03D0214646
:104F5000304600F029F9A089B4F90C2010F00103C3
:104F60000AD00023A36063695B42A361236943B94C
:104F700010F08000BAD170BD810758BF6369A3608B
:104F8000F4E70020F7E700BF000000208055000094
:104F9000A05500006055000038B5064D00230446BA
:104FA00008462B6000F024FA431C02D12B6803B1A1
:104FB000236038BD1C0501208A892DE9F041054692
:104FC00010070C4658D44B68002B05DC0B6C002BEB
:104FD00002DC0020BDE8F081E66A002EF9D0002353
:104FE00012F480522F682B6032D0606DA3895A076B
:104FF00005D56368C01A636B0BB1236CC01A00231C
:105000000246E66A216A2846B047431CA38906D1B6
:1050100029681D292CD82A4ACA40D60728D500223B
:105020006260D9042269226004D5421C01D12B6838
:1050300003B96065616B2F600029CAD004F1440395
:10504000994202D0284600F04FF900206063C1E782
:10505000216A01232846B047411CC7D12B68002B89
:10506000C4D01D2B01D0162B01D12F60B1E7A3892D
:1050700043F04003A381ADE70F69002FA9D0930748
:105080000E6808BF4B690F6018BF0023A6EB070826
:105090008B60B8F1000F9CDD216AA66A43463A4650
:1050A0002846B047002806DCA38943F04003A381CB
:1050B0004FF0FF308EE70744A8EB0008E9E700BF98
:1050C0000100402038B50B6905460C4613B9002590
:1050D000284638BD18B183690BB9FFF761FA144B44
:1050E0009C421BD16C68B4F90C30002BEFD0626E7F
:1050F000D00704D4990502D4A06DFFF7EFFA284633
:105100002146FFF759FF636EDA070546E0D4A3890D
:105110009B05DDD4A06DFFF7E2FAD9E7054B9C4271
:1051200001D1AC68DFE7044B9C4208BFEC68DAE7CA
:1051300080550000A05500006055000038B5074DAF
:1051400004460846114600222A601A4600F078F903
:10515000431C02D12B6803B1236038BD1C0501201C
:1051600070B50E46B1F90E10002996B014461D46D2
:1051700007DA00232B60B3891A0610D44FF480633A
:105180000EE06A4600F012F90028F2DB019A02F400
:105190007042A2F500535A425A412A60EEE740237A
:1051A0000020236016B070BD8B8973B59D0706463D
:1051B0000C4607D504F14703236023610123636193
:1051C00002B070BD01AB6A46FFF7CAFF0099054601
:1051D0003046FFF785FA48B9B4F90C309A05EFD498
:1051E00023F0030343F00203A381E3E70D4BB36213
:1051F000A389206043F08003A381009B6361019B2E
:1052000020615BB1B4F90E10304600F0E1F828B12E
:10521000A38923F0030343F00103A381A08905437D
:10522000A581CDE739450000000000000000000026
:1052300001F0FF01102A2BDB10F0070F08D010F847
:10524000013B013A8B422DD010F0070F42B3F6D14B
:10525000F0B441EA012141EA014122F007047FF064
:1052600000070023F0E80256083C85EA010586EABB
:10527000010685FA47F5A3FA87F586FA47F6A5FAF7
:1052800087F68EB9EED1F0BC01F0FF0102F0070203
:1052900032B110F8013B013A83EA010313B1F8D1AE
:1052A0000020704701387047002D06BF354603388F
:1052B000073815F0010F07D1013015F4807F02BFC8
:1052C000013015F4C03F0130F0BC0138704700BF19
:1052D0000148FFF703BA00BF140501200148FFF79A
:1052E000FEB900BF1405012037B5002948D051F898
:1052F000043C0190002BA1F10404B8BFE418FFF7AF
:10530000E7FF204A01981368154633B963601460BB
:1053100003B0BDE83040FFF7E1BFA3420BD92168DD
:105320006218934204BF1A685B68636004BF521836
:1053300022602C60ECE71A465B680BB1A342FAD9F5
:1053400011685518A5420BD1246821445418A34272
:105350001160DDD11C685B68536021441160D7E7A0
:1053600002D90C230360D3E7256861198B4204BF7F
:1053700019685B68636004BF491921605460C7E71E
:1053800003B030BD8C04012038B5074D04460846F3
:10539000114600222A601A4600F05AF8431C02D136
:1053A0002B6803B1236038BD1C05012038B5074DBB
:1053B00000230446084611462B6000F021F8431CE8
:1053C00002D12B6803B1236038BD00BF1C0501204A
:1053D00038B5064D0023044608462B6000F020F83F
:1053E000431C02D12B6803B1236038BD1C0501208A
:1053F000024B58221A604FF0FF3070471C05012005
:10540000024B58221A604FF0FF3070471C050120F4
:10541000024B58221A604FF0FF3070471C050120E4
:10542000024B58221A600020704700BF1C05012063
:10543000024B58221A604FF0FF3070471C050120C4
:10544000024B58221A604FF0FF3070471C050120B4
:10545000024B58221A604FF0FF3070471C050120A4
:10546000044A05491368002B08BF0B461844106016
:10547000184670479404012020050120F8B500BFAC
:10548000F8BC08BC9E467047F8B500BFF8BC08BC25
:105490009E46704704000020FFFFFFFFFFFFFFFF55
:1054A000FFFFFFFFFFFFFFFF000000000000000004
:1054B0000000D601070100004F766572666C6F77B9
:1054C0000D0A00004150505F4552524F523A45522A
:1054D000524F523A466174616C0D0A005465726D08
:1054E000696E616C000000005254540053454747F8
:1054F00045520000434D5349532D4E4E204D4E49C9
:105500005354204576756C6174696F6E20737461B5
:1055100072746564210A00000A205265616C206C77
:105520006162656C3A202564202C20707265646984
:1055300063743A202575200A000000006379636CCB
:10554000657320696E206D73203D20256C750A00FF
:10555000000003070000000000800040000400007D
:10556000000000000000000000000000000000003B
:10557000000000000000000000000000000000002B
:10558000000000000000000000000000000000001B
:10559000000000000000000000000000000000000B
:1055A00000000000000000000000000000000000FB
:1055B00000000000000000000000000000000000EB
:1055C000232D302B2000686C4C00656667454647EC
:1055D000003031323334353637383941424344456F
:1055E00046003031323334353637383961626364DE
:0855F0006566000000000000E8
:1055F80008B10181B0B000840000000008B1018149
:08560800B0B0008400000000B6
:1056100030AEFF7F01000000A4C2FF7FB0AF0E805C
:10562000D0C3FF7FB0AA0380A0C4FF7F01000000A9
:105630008CDFFF7FB0A9028020E0FF7FB0B0A880A0
:1056400070E0FF7F010000007CE0FF7FB0B0AA8027
:10565000B0E0FF7FAE71B28074E1FF7F0100000017
:1056600070E1FF7FAB3F3880C8E1FF7F01000000A1
:10567000D4E1FF7FB0B0AA8010E2FF7F01000000FC
:10568000B8E2FF7FAB0EB28028E3FF7FB0AF0880A7
:10569000C8E5FF7F01000000CCE5FF7FAD3F028041
:1056A0003CE8FF7F0100000018EAFF7F00840480CF
:1056B0002CEAFF7F0100000028EAFF7FB0AD0480E4
:1056C000BCECFF7FB0A80380E0ECFF7F2CFFFF7FE6
:1056D000E4ECFF7F30FFFF7FF0ECFF7F0100000074
:1056E000040000200000000080550000A0550000CC
:1056F00060550000000000000000000000000000F5
:105700000000000000000000000000000000000099
:105710000000000000000000000000000000000089
:105720000000000000000000000000000000000079
:105730000000000000000000000000000000000069
:10574000000000000020004000000000F4F1F2F131
:10575000F7E9EDEC0DEE03FCE7EF03ED0A020002C2
:10576000FBE5EA0000080EF8E5EEFBF2D7E805F2EB
:1057700006E504E1EFF813DFE5D2CFDAF4C4E21373
:10578000F9EC03E1DA0EE100FCD8F9F2D506F8E213
:1057900004F8EBE6110901E0F1F0FC0CFCF1C600A5
:1057A000F0DFE6020B0F0802EF19F1FBEAF0F3E776
:1057B000FD00F8F6FA06F7CC1004F703FDFBEAF358
:1057C000FBEAB1F10CF8EA1B08EF07121002DDFB4F
:1057D000152FF301192104D4FAF0F8F401F4CE14D2
:1057E00001F5F50BFBFFFB110FFA0210F40F02EEAF
:1057F000FDFCFEDF06EAFEF21FD6D2D2100718FC2F
:10580000110EEE08E8F10F03FDE116EDDFEEFEF9F3
:1058100002E0FD0A17F7DBF81D17FD020508E10895
:105820000AF70A0DC4E2FB0AFAF209FCEBE71201DF
:10583000F7EDF30125F8F2021DF0E2F8100503FD83
:10584000F9F907EA0BF9EF01190C15FE0C0AEBE860
:10585000EA0F23E8170505FA0B10DCF9F30EE0FC5C
:10586000FFF5E4011BF2DA0702F1F611261207FC3C
:10587000D8240409181800E900FEDE0FDD10D1F469
:1058800001E5041C19EBE0FA1EC9F6E3F0220C0D49
:1058900004F5F3E708F6D2EA19EDD40108DEF4FACC
:1058A000E701FE0CE8E8D70E0C0EF3E7DEF6000485
:1058B0000805FE18F4FCC8F4E90EF6DF16DC0EF25B
:1058C000E9050F0EE40FAF12FA06030408EBF0002F
:1058D000F6CFEC0AD10914120815F6F7F1FD03E52D
:1058E000E70B182310F0E3081112C9FB0C111B047D
:1058F000F205FBEFFAE2F7FFFC0EF205E9FFFBD839
:10590000DBF402180AF2FBD7F5E5F1E13E0D3C1B92
:105910002E0309F30DF2D4FD0602F5F5AA0F1200CD
:10592000F3070604EACF0FEA1E0CF2F10A08F802A8
:10593000110EF316F101E0F50DFAE8E8FBEC0101B8
:10594000F50201F6F7F2BC0B0AFEF704F904EE02C9
:10595000FDF2FF08EA03D70BF303E705020AF004A0
:10596000F60CFD13F0D2B2E5FE0DE207EF192A099D
:10597000D3FA1A12EAFA1827E20BC5FC14E4F3F67C
:10598000F811010EDAFEE2DE09000FD603F50EF97A
:1059900008EAECE0F5E31315D402F2FC09EF09067E
:1059A000F80BF4FEEFE502F2DC0509F318FC1B042A
:1059B0000CDD07FDF707C9FAFDFB09E7CD0718FE67
:1059C000EC0B0318FEED0605EB0DEFFC0705F325C8
:1059D00002051523020FEE03FA22ED11D003F10B9D
:1059E000FC091617FAD8F8E80506DAF8131DC01EE8
:1059F000F708141B0BEDF602052EFA050703E30367
:105A0000FD090E261209F007FDFCBD130D31CFD69E
:105A10000B0B280212102AE115CFF70C16021605FF
:105A20000D10D5D42224180306180318C3D6FDEA96
:105A300011F004BF05FDF0EBFEE60BFD06FC1501C1
:105A40000900DEC802222113E20D060FC4C817E3C5
:105A5000FADCB7DEF5E3D3F6F4F50DEC2A0E05EA31
:105A6000FCE8FDA7111B26FAF20801FAF211E5FD88
:105A7000EA05E6EF13EE0AF5F8FCEE0B04050EFC62
:105A8000F502E31607FBED0415DFFE04FE1100E747
:105A9000F1FFDA081406FFD9010EDD07EB0BF2085F
:105AA000FEEAF20B100DDDDD0EE2F1E90423F21245
:105AB0001AFE0009030BF709E93B081514DE1B0168
:105AC000F90B0E080700EB1FF20B02E9FE04160F9C
:105AD0002203F613001EF80CBF08240FFAEB22ED88
:105AE000F20BE9F2DE05F1FB03210AD0E8151910EB
:105AF00023EAE108E9EAEF0BDC04E6FD10E20ED749
:105B0000F601020CFCF8F9CBE80FF606FE19DFFEF1
:105B1000E204F2F910E4FF051B14FAF1F9FEE5EBDB
:105B2000050F122904FBD5F50AF8F60A0218E0EB76
:105B3000E8F2EBE10CE2F809FEDF02FDF10B03EC09
:105B4000FC1ED9FDFEFEF7F60CFC000201030FE47B
:105B500014F711F7FAEBFCDEEA12F1FE08FE32F957
:105B60000702FE00E002FC0DEF0D0FFF1606090B09
:105B70003B10290A092701FCEE090F08F7E60EF889
:105B8000E1E7FFEE05F1FF0F0DE9121EE732040514
:105B90001DE3C3F7EFFFFD0DFAF9EF01EEED00DCB9
:105BA000F1F818D5F5DFC400F8F4040DF4EDE90BB5
:105BB000D4F5FA20D8FFF31CD91911E8E9F002FA5C
:105BC000F4FDFEFEF6E7E4E4E604F9E7EBE0FC00B2
:105BD000F1C1E6E1DCECF9E0FEBA0FFFFBE402E024
:105BE000F0EDFDE5EEF802D8F61613E3F5F0220D20
:105BF00016C20CF80ED6B6FF0120F8DAF5F702E867
:105C0000EDFEEA12F9FAE300F912190D2704051D59
:105C10000DF61804F4F80A0ADD10E6B2E6DEFFEA33
:105C2000F5CC18FB10F5BA09FFF2FE221E0DF21199
:105C300018ECFFFBDCF5F702F0FAECE5EEF8EEE429
:105C4000D8D6010CF9E0F8DFE7FB0209EFE2F7E153
:105C5000E425DAFCF2F7F91CF4C90AE405E71CF4C0
:105C600016FDE6C7FA0701E2E0071CD3EAEFE7E01A
:105C7000FEF3E4E4F0D52D0F01C705EE07F21DF4A5
:105C800024F40AE0DEFE08F5E008FFEA1F1D17070E
:105C900008F405F20FE4273A220AE5D1F1FC4FE1BE
:105CA00009F1021D2201F0FCEF000E1B1C1F2A1C33
:105CB000F5FE1D08FE08FE01EC04F8F405100FEFD8
:105CC000FAF80AFEEF0CF01006C3E3230E040505F4
:105CD000E9F50F0FF6F900DBE4FA06E901FCEDFD4A
:105CE0000D18FD9EF8F7FAE5F4021AD7FFBC07F08D
:105CF000EFF8D51EE1EF1AEE00F0FE0C0402FDFAFB
:105D0000F90E02AA0FF415E9E22009CDF2E0F80B32
:105D10001413E7F4D9E7FD230A27F1140B090C113A
:105D20001CFF07E1EF02FBEEF70107DE0310080B93
:105D30001006210BEFF506020E17FF05F603000E05
:105D40000DF510EE0503ED05EBFC0C01060DEF1350
:105D5000F0191204EE020AF8F6F80A0C0D1DE91A01
:105D6000FBFF00F30CFA0D0600D1E4FBFB19E2FE89
:105D7000FB0F110F0D130B062CFD0708FD03EF2B76
:105D8000FC0DF30DEDE1071012F3E3FBF5DF04FE6C
:105D9000ECE9100AD6F110F8021420ECF8F10BEB44
