:10000000E00D012021310000C14E010051310000FE
:10001000513100005131000051310000000000005A
:10002000000000000000000000000000F52E0000AD
:100030005131000000000000AD2E0000F74D01001E
:10004000E1300000E1300000E1300000E13000006C
:10005000E1300000E1300000E1300000E13000005C
:10006000E1300000E1300000E1300000E13000004C
:10007000E1300000E1300000E1300000E13000003C
:10008000E1300000E1300000E1300000E13000002C
:10009000E1300000E1300000E1300000E13000001C
:1000A000E1300000E1300000E1300000E13000000C
:1000B000E1300000E1300000E1300000E1300000FC
:1000C000E1300000E1300000E1300000E1300000EC
:1000D000E1300000E1300000E1300000E1300000DC
:1000E000E1300000E1300000E1300000E1300000CC
:1000F000E1300000E1300000E1300000E1300000BC
:1001000001F0FF01102A2BDB10F0070F08D010F8C8
:10011000013B013A8B422DD010F0070F42B3F6D1CC
:10012000F0B441EA012141EA014122F007047FF0E5
:1001300000070023F0E80256083C85EA010586EA3C
:10014000010685FA47F5A3FA87F586FA47F6A5FA78
:1001500087F68EB9EED1F0BC01F0FF0102F0070284
:1001600032B110F8013B013A83EA010313B1F8D12F
:100170000020704701387047002D06BF3546033810
:10018000073815F0010F07D1013015F4807F02BF49
:10019000013015F4C03F0130F0BC0138704700BF9A
:1001A00053B94AB9002908BF00281CBF4FF0FF31DE
:1001B0004FF0FF3000F06EB9ADF1080C6DE904CEE0
:1001C00000F006F8DDF804E0DDE9022304B0704732
:1001D0002DE9F047089D04468C46002B40F08380B3
:1001E0008A42174647D9B2FA82F242B1C2F12000E0
:1001F00024FA00F09140974040EA010C94404FEA05
:100200001748230CBCFBF8F61FFA87FE08FB16C143
:1002100043EA014306FB0EF1994209D9FB1806F1A6
:10022000FF3080F01981994240F21681023E3B4432
:100230005B1AA4B2B3FBF8F008FB103344EA0344A2
:1002400000FB0EFEA64509D93C1900F1FF3380F0F2
:100250000581A64540F2028102383C4440EA06404E
:10026000A4EB0E0400261DB1D4400023C5E90043D1
:100270003146BDE8F08702B9FFDEB2FA82F2002A09
:1002800050D1CB1B4FEA174E1FFA87F80126B3FB5C
:10029000FEFC210C0EFB1C3341EA034108FB0CF36E
:1002A0008B4207D979180CF1FF3002D28B4200F251
:1002B000E9808446C91AA3B2B1FBFEF00EFB10110F
:1002C00043EA014408FB00F8A04507D93C1900F1B6
:1002D000FF3302D2A04500F2D9801846A4EB0804EF
:1002E00040EA0C40BFE78B4209D9002D00F0B180F5
:1002F0000026C5E9000130463146BDE8F087B3FA73
:1003000083F6002E4AD18B4202D3824200F2B8809B
:10031000841A61EB030101208C46002DA8D0C5E9A9
:10032000004CA5E7C2F1200320FA03F6974001FA3A
:1003300002F04FEA174ED9403043030CB1FBFEF6F2
:100340001FFA87F80EFB161143EA014306FB08F17A
:10035000994204FA02F409D9FB1806F1FF3C80F037
:100360008D80994240F28A80023E3B445B1A81B202
:10037000B3FBFEF00EFB103341EA034100FB08F330
:100380008B4207D9791800F1FF3C73D28B4271D9A7
:1003900002383944CB1A40EA064678E7C6F1200C09
:1003A00003FA06F422FA0CF31C4320FA0CF701FAC4
:1003B00006F34FEA144E21FA0CF11F433B0CB1FB3C
:1003C000FEF91FFA84F80EFB191143EA014109FBFB
:1003D00008FA8A4502FA06F200FA06F308D961180B
:1003E00009F1FF3048D28A4546D9A9F102092144D2
:1003F000A1EB0A01BFB2B1FBFEF00EFB101147EA00
:10040000014700FB08F8B84507D9E71900F1FF31AB
:100410002ED2B8452CD90238274440EA0940A7EB30
:100420000807A0FB02894F45C64649461AD317D094
:100430005DB1B3EB0E0267EB010707FA0CFCF2406B
:100440004CEA0202F740C5E9002700263146BDE824
:10045000F0872E4628460BE70646E9E61846FDE6F5
:100460004345E5D2B8EB020E69EB04010138DFE742
:100470000846D2E760468DE78146B9E7664675E7EC
:1004800030464AE7ACF1020C394413E702383C44E9
:1004900024E700BF704700BF80B483B000AF78602E
:1004A0007B6801339B0018460C37BD465DF8047B22
:1004B000704780B582B000AF786039607A683B6879
:1004C0009A4201D1012310E07B68002B02D03B68E7
:1004D000002B01D1002308E03B6819683B68043316
:1004E0001A46786800F005F8034618460837BD46F6
:1004F00080BD80B487B000AFF860B9607A60FB68F7
:10050000002B06D1BB68002B0CBF01230023DBB2FC
:1005100020E0FB681B68BA689A4201D0002319E00A
:1005200000237B6110E0FA687B699B0013445A68E2
:100530007B699B0079680B441B689A4201D00023B9
:1005400008E07B6901337B61FB681B687A699A422A
:10055000E9DB012318461C37BD465DF8047B704774
:1005600080B584B000AF78607868FFF795FF0346E8
:10057000184613F015F90346FB60FB687A681A60A9
:10058000FB6818461037BD4680BD80B584B000AF0B
:1005900078607B68002B01D1002313E07B681B6827
:1005A0001846FFF7DDFFF860FB68002B09D0FB68F9
:1005B000181D7B68191D7B681B689B001A461EF07E
:1005C0002EF8FB6818461037BD4680BD80B582B056
:1005D00000AF7860786813F0EBF800BF0837BD46CD
:1005E00080BD80B483B000AF78607B6801339B002E
:1005F00018460C37BD465DF8047B704780B584B063
:1006000000AF78607868FFF7ECFF0346184613F0F8
:10061000C7F80346FB60FB687A681A60FB681846F7
:100620001037BD4680BD80B582B000AF7860786875
:1006300013F0BEF800BF0837BD4680BD80B582B05C
:1006400000AF78607B681B7D042B03D07B681B7D2B
:10065000052B04D17B685B68184613F0A9F87B680A
:1006600000225A6000BF0837BD4680BD80B584B007
:1006700000AF78607B681B78012B1DD17B685B68BD
:10068000FB60FB681B68002B07D0FB681B681846E3
:10069000FFF7C9FFFB6800221A60FB685B68002B4C
:1006A00007D0FB685B681846FFF790FFFB680022E5
:1006B0005A60F86813F07CF87B6800225A607B6807
:1006C00000221A7000BF1037BD4680BD90B589B0BA
:1006D00000AF78607B68002B4BD07B681B68002BD9
:1006E00007D07B681B681846FFF770FF7B68002205
:1006F0001A607B685B68002B07D07B685B681846D4
:10070000FFF764FF7B6800225A607B689B68002BC0
:100710002BD00023FB611BE07B689A68FB691B01FF
:10072000134407F10C040FCB84E80F003B7B012B33
:100730000BD17B691846FFF749FF00237B61BB693A
:100740001846FFF743FF0023BB61FB690133FB61E0
:100750007B68DB68FA699A42DEDB7B689B68184637
:1007600013F026F87B6800229A60786813F020F86E
:1007700000E000BF2437BD4690BD80B582B000AF19
:1007800078607868FFF75AFF7B689B68002B04D07D
:100790007B689B681846FFF719FF7B6800229A6008
:1007A0007B68DB6B002B04D07B68DB6B1846FFF7A4
:1007B0000DFF7B680022DA637B6830331846FFF751
:1007C00055FF7B689B6B1846FFF780FF7B68002214
:1007D0009A6300BF0837BD4680BD82B080B584B043
:1007E00000AFB9607A60FB610346FB73B86BFFF73B
:1007F000C4FFBB6BFA7B1A70BB6BBA681A62BB6B27
:100800007A689A60BB6B0C3307F11C0292E8030014
:1008100083E80300BB6B7A6A5A60BB6BBA6A9A6161
:10082000BB6B97F82C201A75BB6B3A6BDA61BB6B0C
:1008300097F8342083F82D20BB6B002283F83020FA
:10084000BB6B00225A6300BF1037BD46BDE8804035
:1008500002B0704780B582B000AF786039603B6805
:100860001B7D042B03D03B681B7D052B1DD13B68F2
:100870005B68002B07D1786812F092FF03461A4696
:100880003B685A600DE03B689B697A689A4208D9D8
:100890003B685B687968184613F092FA02463B6839
:1008A0005A603B687A689A6100E000BF0837BD462D
:1008B00080BD80B483B000AF0346FB71FB790B2B86
:1008C00032D801A252F823F0F9080000FD08000018
:1008D0000509000009090000110900001D090000B8
:1008E0001509000001090000190900000D090000A8
:1008F00021090000250900000F4B16E00F4B14E002
:100900000F4B12E00F4B10E00F4B0EE00F4B0CE0C3
:100910000F4B0AE00F4B08E00F4B06E00F4B04E0D3
:100920000F4B02E00F4B00E00F4B18460C37BD4653
:100930005DF8047B704700BF20EC010028EC01004B
:1009400030EC010038EC010040EC010048EC010003
:1009500050EC010058EC010060EC01006CEC01006F
:1009600074EC01007CEC010084EC0100B0B58AB0AD
:1009700000AF786007F108032022002118461DF01F
:100980005CFE7B681D4607F108040FCC0FC594E898
:100990000F0085E80F0078682837BD46B0BD00BF5E
:1009A00081F0004102E000BF83F0004330B54FEA20
:1009B00041044FEA430594EA050F08BF90EA020F8D
:1009C0001FBF54EA000C55EA020C7FEA645C7FEA20
:1009D000655C00F0E2804FEA5454D4EB5555B8BF43
:1009E0006D420CDD2C4480EA020281EA030382EAB4
:1009F000000083EA010180EA020281EA0303362D46
:100A000088BF30BD11F0004F4FEA01314FF4801C18
:100A10004CEA113102D0404261EB410113F0004F2A
:100A20004FEA03334CEA133302D0524263EB4303E1
:100A300094EA050F00F0A780A4F10104D5F1200E7F
:100A40000DDB02FA0EFC22FA05F2801841F10001DA
:100A500003FA0EF2801843FA05F359410EE0A5F1AE
:100A600020050EF1200E012A03FA0EFC28BF4CF0DF
:100A7000020C43FA05F3C01851EBE37101F0004595
:100A800007D54FF0000EDCF1000C7EEB00006EEBA2
:100A90000101B1F5801F1BD3B1F5001F0CD349082C
:100AA0005FEA30004FEA3C0C04F101044FEA445283
:100AB00012F5800F80F09A80BCF1004F08BF5FEA0A
:100AC000500C50F1000041EB045141EA050130BDEA
:100AD0005FEA4C0C404141EB0101013C28BFB1F5FC
:100AE000801FE9D291F0000F04BF01460020B1FA47
:100AF00081F308BF2033A3F10B03B3F120020CDA1A
:100B00000C3208DD02F1140CC2F10C0201FA0CF0F7
:100B100021FA02F10CE002F11402D8BFC2F1200C5C
:100B200001FA02F120FA0CFCDCBF41EA0C01904012
:100B3000E41AA2BF01EB0451294330BD6FEA04045B
:100B40001F3C1CDA0C340EDC04F11404C4F1200246
:100B500020FA04F001FA02F340EA030021FA04F358
:100B600045EA030130BDC4F10C04C4F1200220FAAF
:100B700002F001FA04F340EA0300294630BD21FAED
:100B800004F0294630BD94F0000F83F4801306BFB3
:100B900081F480110134013D4EE77FEA645C18BFA7
:100BA0007FEA655C29D094EA050F08BF90EA020F3E
:100BB00005D054EA000C04BF1946104630BD91EA36
:100BC000030F1EBF0021002030BD5FEA545C05D139
:100BD0004000494128BF41F0004130BD14F5800478
:100BE0003CBF01F5801130BD01F0004545F0FE41EC
:100BF00041F470014FF0000030BD7FEA645C1ABF21
:100C0000194610467FEA655C1CBF0B46024650EA57
:100C1000013406BF52EA033591EA030F41F4002183
:100C200030BD00BF90F0000F04BF0021704730B509
:100C30004FF4806404F132044FF000054FF00001DE
:100C400050E700BF90F0000F04BF0021704730B59F
:100C50004FF4806404F1320410F0004548BF404274
:100C60004FF000013EE700BF42004FEAE2014FEAC9
:100C700031014FEA02701FBF12F07F4393F07F4FA4
:100C800081F06051704732F07F4208BF704793F0A7
:100C90007F4F04BF41F40021704730B54FF46074BA
:100CA00001F0004521F000411CE700BF50EA0102BD
:100CB00008BF704730B54FF000050AE050EA010266
:100CC00008BF704730B511F0004502D5404261EBD6
:100CD00041014FF4806404F132045FEA915C3FF417
:100CE000D8AE4FF003025FEADC0C18BF03325FEAB4
:100CF000DC0C18BF033202EBDC02C2F1200300FA65
:100D000003FC20FA02F001FA03FE40EA0E0021FA89
:100D100002F11444BDE600BF70B54FF0FF0C4CF477
:100D2000E06C1CEA11541DBF1CEA135594EA0C0F29
:100D300095EA0C0F00F0DEF82C4481EA030621EA64
:100D40004C5123EA4C5350EA013518BF52EA03359F
:100D500041F4801143F4801338D0A0FB02CE4FF051
:100D60000005E1FB02E506F00042E0FB03E54FF081
:100D70000006E1FB03569CF0000F18BF4EF0010E79
:100D8000A4F1FF04B6F5007F64F5407404D25FEA75
:100D90004E0E6D4146EB060642EAC62141EA555128
:100DA0004FEAC52040EA5E504FEACE2EB4F1FD0C6A
:100DB00088BFBCF5E06F1ED8BEF1004F08BF5FEAE8
:100DC000500E50F1000041EB045170BD06F000469A
:100DD00046EA010140EA020081EA0301B4EB5C0447
:100DE000C2BFD4EB0C0541EA045170BD41F480113F
:100DF0004FF0000E013C00F3AB8014F1360FDEBF64
:100E0000002001F0004170BDC4F10004203C35DA3F
:100E10000C341BDC04F11404C4F1200500FA05F3C2
:100E200020FA04F001FA05F240EA020001F0004263
:100E300021F0004110EBD37021FA04F642EB0601D9
:100E40005EEA430E08BF20EAD37070BDC4F10C0403
:100E5000C4F1200500FA04F320FA05F001FA04F2C7
:100E600040EA020001F0004110EBD37041F10001B3
:100E70005EEA430E08BF20EAD37070BDC4F12005BE
:100E800000FA05F24EEA020E20FA04F301FA05F226
:100E900043EA020321FA04F001F0004121FA04F2CE
:100EA00020EA020000EBD3705EEA430E08BF20EA9E
:100EB000D37070BD94F0000F0FD101F000464000D8
:100EC00041EB010111F4801F08BF013CF7D041EA5A
:100ED000060195F0000F18BF704703F0004652005E
:100EE00043EB030313F4801F08BF013DF7D043EA2F
:100EF0000603704794EA0C0F0CEA135518BF95EAE5
:100F00000C0F0CD050EA410618BF52EA4306D1D16B
:100F100081EA030101F000414FF0000070BD50EA8A
:100F2000410606BF1046194652EA430619D094EA14
:100F30000C0F02D150EA013613D195EA0C0F05D1FE
:100F400052EA03361CBF104619460AD181EA030152
:100F500001F0004141F0FE4141F470014FF000000A
:100F600070BD41F0FE4141F4780170BD70B54FF0A5
:100F7000FF0C4CF4E06C1CEA11541DBF1CEA135525
:100F800094EA0C0F95EA0C0F00F0A7F8A4EB050407
:100F900081EA030E52EA03354FEA013100F08880FE
:100FA0004FEA03334FF0805545EA131343EA1263C7
:100FB0004FEA022245EA111545EA10654FEA00267C
:100FC0000EF000419D4208BF964244F1FD0404F535
:100FD000407402D25B084FEA3202B61A65EB030591
:100FE0005B084FEA32024FF480104FF4002CB6EB4E
:100FF000020E75EB030E22BFB61A754640EA0C00CE
:101000005B084FEA3202B6EB020E75EB030E22BF0D
:10101000B61A754640EA5C005B084FEA3202B6EB4E
:10102000020E75EB030E22BFB61A754640EA9C000D
:101030005B084FEA3202B6EB020E75EB030E22BFDD
:10104000B61A754640EADC0055EA060E18D04FEA9B
:10105000051545EA16754FEA06164FEAC30343EA3B
:1010600052734FEAC2025FEA1C1CC0D111F4801F08
:101070000BD141EA00014FF000004FF0004CB6E701
:1010800011F4801F04BF01430020B4F1FD0C88BFA0
:10109000BCF5E06F3FF6AFAEB5EB030C04BFB6EBAB
:1010A000020C5FEA500C50F1000041EB045170BD9E
:1010B0000EF0004E4EEA113114EB5C04C2BFD4EBCB
:1010C0000C0541EA045170BD41F480114FF0000E4F
:1010D000013C90E645EA060E8DE60CEA135594EACB
:1010E0000C0F08BF95EA0C0F3FF43BAF94EA0C0FCE
:1010F0000AD150EA01347FF434AF95EA0C0F7FF443
:1011000025AF104619462CE795EA0C0F06D152EA96
:1011100003353FF4FDAE1046194622E750EA41067A
:1011200018BF52EA43067FF4C5AE50EA41047FF48B
:101130000DAF52EA43057FF4EBAE12E74FF0FF3CF0
:1011400006E000BF4FF0010C02E000BF4FF0010CC1
:101150004DF804CD4FEA410C7FEA6C5C4FEA430C3A
:1011600018BF7FEA6C5C1BD001B050EA410C0CBF89
:1011700052EA430C91EA030F02BF90EA020F0020EB
:10118000704710F1000F91EA030F58BF994208BF52
:1011900090422CBFD8176FEAE37040F0010070470F
:1011A0004FEA410C7FEA6C5C02D150EA013C07D166
:1011B0004FEA430C7FEA6C5CD6D152EA033CD3D0B1
:1011C0005DF8040B704700BF8446104662468C46AB
:1011D0001946634600E000BF01B5FFF7B7FF0028DE
:1011E00048BF10F1000F01BD4DF808EDFFF7F4FF07
:1011F0000CBF012000205DF808FB00BF4DF808ED92
:10120000FFF7EAFF34BF012000205DF808FB00BFB4
:101210004DF808EDFFF7E0FF94BF012000205DF8D6
:1012200008FB00BF4DF808EDFFF7CEFF94BF01208B
:1012300000205DF808FB00BF4DF808EDFFF7C4FF84
:1012400034BF012000205DF808FB00BF4FEA4102D7
:1012500012F5001215D211D56FF47873B3EB625208
:1012600012D94FEAC12343F0004343EA505311F02F
:10127000004F23FA02F018BF404270474FF00000C1
:10128000704750EA013005D111F0004008BF6FF0FF
:10129000004070474FF00000704700BF4FEA410226
:1012A000B2F1E04324BFB3F5001CDCF1FE5C0DD9C4
:1012B00001F0004C4FEAC0024CEA5070B2F1004F0E
:1012C00040EB830008BF20F00100704711F0804F11
:1012D00021D113F13872BCBF01F00040704741F4D6
:1012E00080114FEA5252C2F11802C2F1200C10FADA
:1012F0000CF320FA02F018BF40F001004FEAC123BE
:101300004FEAD32303FA0CFC40EA0C0023FA02F361
:101310004FEA4303CCE77FEA625307D150EA013337
:101320001EBF4FF0FE4040F44000704701F0004007
:1013300040F0FE4040F40000704700BF38B5002286
:10134000002304460D46FFF759FF28B920462946D9
:10135000BDE8384000F00AB8204605F1004100F031
:1013600005F8404261EB410138BD00BFD0B50C4BE0
:10137000002206460F46FFF7CFFC00F015F80446A2
:10138000FFF750FC074B0022FFF7C6FC02460B4656
:1013900030463946FFF708FB00F006F82146D0BD7D
:1013A0000000F03D0000F0414A0011D212F5001299
:1013B00011D20DD56FF47873B3EB62520ED44FEAAD
:1013C000C12343F0004343EA505323FA02F070472D
:1013D0004FF00000704750EA013002D14FF0FF306B
:1013E00070474FF00000704710F8012B11F8013BD7
:1013F000012A28BF9A42F7D0D01A7047034613F843
:10140000012B002AFBD1181A013870470000000098
:101410002DE9F84F4FF000432DED028B23FA00F039
:1014200057EC106B59EC118B93468A46FFF70AFC78
:10143000424604460D464B4630463946FFF76CFCA3
:1014400002460B4620462946FFF766FC02460B463D
:1014500043EC182B0AA3D3E90023FFF7D9FE08B900
:101460009FED078BB0EE480AF0EE680ABDEC028BE8
:1014700059465046BDE8F84F10F09EB9AFF30080D2
:101480000000C0FFFFFFDF412DE9F74F0446C868A9
:1014900015461E468A46FFF7E7FB8046E868894600
:1014A000FFF7E2FB02460B4640464946FFF734FC95
:1014B000DDE90C7B80468946D6B1F068FFF7D4FBA6
:1014C00002460B4640464946FFF76EFA8046F868EA
:1014D00021F00049FFF7C8FB02460B46404649464B
:1014E000FFF744FD11A3D3E90023FFF7A5FE50B990
:1014F0003B462A4651462046CDF830B003B0BDE801
:10150000F04F10F09BB9064B009320466569054AE1
:1015100005499A23A847012003B0BDE8F08F00BF1A
:101520006B9302002B930200D27202007B14AE4731
:10153000E17A943F0000000051EC100BF8B5C1F3C4
:101540000A53A3F2FF35132D10EE106A0C4620DC6F
:10155000002D3DDB384F2F4101EA070303431DD027
:1015600033A3D3E90023FFF721FA00220023FFF77A
:1015700063FE48B1002C04DA4FF4801343FA05F5FA
:101580002C4424EA070400262346324643EC102B61
:10159000F8BD332D05DDB5F5806F29D041EC100B7A
:1015A000F8BDA3F213434FF0FF37DF400742F5D0F9
:1015B0001FA3D3E90023FFF7F9F900220023FFF767
:1015C0003BFE0028E0D0002C23DB26EA0706DBE701
:1015D00017A3D3E90023FFF7E9F900220023FFF75F
:1015E0002BFE0028D0D0002C0ADB00263446CBE7A7
:1015F00010EE102A0B46FFF7D9F941EC100BF8BD9D
:1016000024F000430D4A1E43002E18BF1446002646
:10161000BAE7142D08D00123C5F1340503FA05F506
:10162000AE1928BFE418D0E70134CEE7AFF300804D
:101630009C7500883CE4377EFFFF0F000000F0BF80
:101640009FED010B704700BF000000000000F87F15
:10165000F0B5434C85B000F031F92378BFF35B8FD0
:10166000DA070BD420461CF0A3FF38B120461CF04B
:10167000ABFF3C4A3C493D4813F029FC3C4D3B4BF9
:101680002B603C4B3C4C1A68D118D3582160CB1AC4
:101690001A88042A62D99A8812B18A58032A04D077
:1016A0003649324803231CF00BFE354E3378BFF326
:1016B0005B8FDB070ED430461CF07AFF50B1314807
:1016C00004F056F930461CF07FFF264A2E492D487B
:1016D00013F0FDFB2D4F3B78BFF35B8F13F001063A
:1016E00017D138461CF064FF98B102962B6801931D
:1016F00047F6B8130093234A2168254B254814F078
:1017000052F838461CF060FF164A2349214813F06E
:10171000DEFB224C1F48206005F0C6F918B12049B5
:1017200028681CF0CDFD23682D68186E13F0D3FFD8
:101730001C49024628461CF0C3FD2068002105F024
:101740007BF9194B00211860206805F091F9174BBF
:101750001860174B00221A6005B0F0BD00229FE709
:10176000B4820020C09600201F4401000000002029
:10177000C0820020A0EC0100CC8200205C5E020050
:10178000B88200204C83002021440100B082002058
:10179000C0080020D4820020EF570100BC82002046
:1017A000A35E0200BC5E0200C8820020D08200203E
:1017B000C482002070B5364B364A1B689FED367ADE
:1017C0005B682DED028B03F54461F2EC016AC6EE15
:1017D000877AE3EC017A8B42F7D113F0B2FE4FF433
:1017E0007A730A46A0FB030103FB02112B4BC40BC7
:1017F000186844EA4144CD0B05F0D4F920B1284BD8
:10180000284918681CF05CFD274B9FED288A1B684F
:101810005A68F2EC017A0123B2EC017AB4EEE77A6D
:10182000F1EE10FAC8BF07EE903A03F10103C4BF0E
:10183000B8EEE78AF0EE477A0A2BEDD113F081FE7D
:101840004FF47A730A46A0FB030103FB0211C20B9B
:10185000134E42EA4142121B4FEAD13363EB0503B8
:10186000134930681CF02CFDFDEEC87A072217EEF4
:10187000901A306800F036F80E4A0F49136809686C
:10188000BDEC028B01338B42A8BF0023136070BDF7
:10189000C8820020F848020000007F43BC8200207C
:1018A000C0820020C65E0200D0820020000000003E
:1018B000D55E0200C48200203855020008B50648F3
:1018C00002F052FF054B186028B9BDE808400249F4
:1018D000034812F0D6BD08BDE45E0200DC9500208E
:1018E000EA5E020013460A4601491CF0E9BC00BF4B
:1018F000085F02002DE9F04F2DED028B83B09A4670
:101900000E9CDFF894B0012CB8BF0124012B0CBF52
:101910003023202308EE103A1546064601274FF0E3
:101920000A080022B5FBFBF90AB9AB4521D809F139
:10193000300000910137B0470122009908F1FF38CB
:10194000B8F1010F0BFB19554FF00A03BBFBF3FB7A
:10195000E8D105F130000091B047BAF1030F0099CA
:1019600002D1E41B002C11DC03B0BDEC028BBDE8FE
:10197000F08F4445E2DBBAF1020FDFD818EE100A0F
:10198000CDE900120137B047019AD6E72020009137
:10199000013CB0470099E5E700CA9A3B014B18604B
:1019A000704700BF040000202DE9F04F8DB01C46A9
:1019B0000027531E05468B4603934FF0FF39B84668
:1019C000002605E06EB9252800F071815946A84728
:1019D000039B13F8010F03930028F3D10DB0BDE86A
:1019E000F08F7A280AD8622810D8302854D045D8E9
:1019F000252800F05A812D2800F05F8159462520C6
:101A0000A847039B18785946A847D9E7A0F1630374
:101A1000172BF3D801A252F823F000BFA31C00003B
:101A2000E71A0000FD190000FD190000FD19000073
:101A3000C91A0000E71A0000FD190000FD19000096
:101A4000C91A0000FD190000FD190000FD19000071
:101A5000891B0000FD190000FD190000731C000027
:101A6000FD190000571B0000FD190000FD190000C2
:101A7000851A0000FD190000C91A000039281AD97A
:101A80005828BBD1039B1B78702B40F0888054F8FA
:101A9000043B0693002290E0B9F1000F0EDAB8F192
:101AA000000F00F00D81A0F13009B8F1000F08BF60
:101AB0004FF002088CE7B9F1000FF4DB0A2303FBB7
:101AC0000909A9F13009F0E7682803D1682F06D188
:101AD00048277DE76C2802D16C2F00F0F480002F9E
:101AE0008CD1074674E77A2F02D154F8046B21E0B9
:101AF0006C2FFAD04C2FF8D1073424F00704F4E807
:101B00000223CDE90423049B13F10041059B0891B6
:101B100043F100010991DDE9082300214FF0FF3076
:101B2000994208BF904204D25946284612F088FCD8
:101B300046E7049E002E05DA59462D20A847764236
:101B400009F1FF39CDF80090434632465946284600
:101B5000FFF7D0FE34E77A2F02D154F8042B0FE0C0
:101B60006C2FFAD04C2FF8D1073424F00704F4E896
:101B7000022300214FF0FF30994208BF9042D3D397
:101B8000CDF800904346E1E759463020A847594632
:101B90007820A8474FF008094FF0010872E76C2F32
:101BA0003FF475AF4C2F7FF472AFE31D23F00703B2
:101BB0001C4654F8082B06925A6800211023049101
:101BC00007914FF0400AAAF1040A0699CAF1200EC3
:101BD000AAF1200C21FA0AF002FA0EFE40EA0E00E9
:101BE00022FA0CFC40EA0C0010F00F0007D1079914
:101BF00011B9BAF1000F25D14FF0300C05E00928DA
:101C00008CBF4FF0570C4FF0300C6044594640B237
:101C10000A920793A847049B0A9A01330493079BEF
:101C2000BAF1000F23D1B8F1030F7FF4C9AE049BC2
:101C3000C3EB4906002E7FF7C3AE59462020A847C4
:101C4000013EF7E7591E99450A9107DBB8F1010FEC
:101C500006D10B9259463020A8470B9A0A9BB2E74F
:101C6000B8F1020FFAD10B9259462020F4E70796FB
:101C7000A9E754F8046BB24653461AF8010B68B949
:101C8000B8F1030F21D19E1BA9EB0606002E7FF7AA
:101C900097AE59462020A847013EF7E75946A84786
:101CA000EAE754F8040B5946AEE65946ACE6374627
:101CB000B0464FF0FF3901268AE64FF0030887E669
:101CC0004FF0010884E64C2782E6064680E600BF16
:101CD00030B585B0CDE901010446002505480395DE
:101CE00001A9FFF761FEDDE902309842B8BF255433
:101CF00005B030BD5D44010030B51049104889B0D1
:101D0000002213F020FC0F4D0F4900220023CDE9E3
:101D1000062300240E23CDE90334CDE901440B4B07
:101D200000944FF44072284603F092FB084928467D
:101D300013F0BDFB204609B030BD00BF551D0000AB
:101D40007882002010960020E0EA0020D5210000D3
:101D5000295F0200014803F00BBB00BF28080020E8
:101D6000F0B505460F4E002003460246012715F840
:101D7000014B0CB18B4200D3F0BD252C02D182F077
:101D80000102F4E7002AF2D014F806C01CF0030F99
:101D9000EDD0732C04BF07FA03F210430133002285
:101DA000E5E700BF2694020008B500F075FA09487F
:101DB00012F04AFC042328220749084813F056FA77
:101DC000074B084A1A604FF40040BDE8084000F095
:101DD000ADBC00BFEC95002020170120F495002039
:101DE0000800002087460100F8B50F4BBFF35B8F5A
:101DF000002553E8007F43E80052002AF9D1BFF3E1
:101E00005B8F0A4C0A4E361B3611B54200DBF8BD1B
:101E100063685B792BB12368DB6813B139462046D0
:101E2000984701351034F0E7E495002010EC0100EC
:101E300020EC0100064BBFF35B8F53E8002F01320B
:101E400043E800210029F8D1BFF35B8F704700BF42
:101E5000E4950020044A054B9B1AB1EBD30F34BF25
:101E600052F8310000207047C8EB010010EC01006F
:101E7000094B4268C31A1B11013310B51371436833
:101E8000064C196001225A71227812B9044803F0F5
:101E90006FFA0123237010BD10EC0100A4E60020AE
:101EA0002808002070B5164B164C1B1B9F2B4FEAC1
:101EB000231606D9144B154A15484FF4F97112F040
:101EC000BCFA144BBFF35B8F53E8005F6A1C43E816
:101ED00000210029F8D1BFF35B8F0DB9B54200D1C5
:101EE00070BD237B43B123685B6903B1984704222B
:101EF00000212046FFF7BCFF01351034EEE700BF9C
:101F000020EC010010EC01007B5F02000B6002007E
:101F1000315F0200E8950020164B984273B50446E5
:101F200002D3154B984220D314480022002301A964
:101F300002F0B4FD0546D8B90122019BBFF35B8FC7
:101F400053E8001F43E800200028F9D1BFF35B8F5E
:101F5000019E331D1F22214618461CF050FC7E2294
:101F600086F8232086F824500446204602B070BD2F
:101F7000034CFAE7C8E901005C950200F4950020E3
:101F8000AE5F020048B1054B984205D3A03398429A
:101F90002CBF00200120704700207047201701202F
:101FA0002DE9F04F4C4B1B7885B0044603B960B364
:101FB0004FF02003EFF3118683F31188BFF36F8F87
:101FC000464812F051FB054686F31188BFF36F8F28
:101FD00078B1BFF35B8F424B53E8002F013A43E8DF
:101FE00000210029F8D1BFF35B8F94B1284612F08D
:101FF00048FC24B93B4B1B680BB1FFF7F5FE374893
:1020000012F030FB041E18BF0124204605B0BDE8C5
:10201000F08F354B1B78CBB92B7ADB0716D412F037
:1020200043FC8046284612F00AFC01464046FFF772
:1020300097FE2E4F2E4BDFF8D4B0DB1BDB0803934B
:102040002C4BDB1B06464FEAD30A36B92A4E2B4FE0
:10205000BF1B3F114FF000083AE0B6FA86F1C1F11C
:102060001F094946284612F0EDFB254B98420146D0
:1020700002D3244A90421AD30846FFF783FF024650
:10208000A8B9214B994212D06B890399C3F38913E4
:102090008B4238BF57F833204FEA8A1343F00103CD
:1020A000ADF8003049464346584612F02FFB012355
:1020B00003FA09F126EA0106C7E773685B7923B1E1
:1020C000336829461B683046984708F101081036E6
:1020D000B845F2DB8AE700BFA4E60020EC950020BB
:1020E000E0950020E4950020A5E60020C8EB010063
:1020F00010EC0100D8EB010010EC010020EC010015
:10210000C8E901005C950200AE5F0200C85F0200F2
:10211000294B73B51B68418104469847274DE06001
:10212000BFF35B8F55E8003F013345E80032002ADA
:10213000F8D1BFF35B8F4FF02003EFF3118683F3E9
:102140001188BFF36F8F1E48214612F081FA86F383
:102150001188BFF36F8F1B4B1B7883B14FF02003A7
:10216000EFF3118483F31188BFF36F8F0020FFF723
:1021700017FF84F31188BFF36F8F02B070BD124A4E
:102180002B681268002AF8D0012B0AD10022002304
:10219000CDE900230D484FF40042002303F02EFB4D
:1021A000EBE70A2BE9D1094813F0D9F9084802B046
:1021B000BDE8704003F0DCB808000020E095002086
:1021C000EC950020A5E6002084960020788200206F
:1021D0002808002010B5FFF765FE03F0C3F80C4B8C
:1021E000186030B10B4B1B68092B02DD0A4803F065
:1021F000BFF8094C0020FFF7D3FE0028FAD14FF0BA
:10220000FF324FF0FF33204603F0D2F8F2E700BF71
:1022100084960020E095002028080020F8B50E4F95
:102220003D7875B90D4C0E4EFFF73CFE361B36114E
:10223000B54207DB0020FFF7B3FE0028FAD10123E7
:102240003B70F8BD63685B791BB1236820461B694E
:10225000984701351034EBE7A5E6002010EC0100AB
:1022600020EC010007B504380190BFF35B8F50E804
:10227000003F5A1E40E800210029F8D1BFF35B8FD0
:10228000012B03D1034801A902F03AFC03B05DF829
:1022900004FB00BFF49500202023024902481A469F
:1022A00012F0E4BFC01701208896002037B5002344
:1022B000094D01930120FFF773FE0446FFF7BAFDB5
:1022C0000022002301A9284602F0E8FB08B1002CF7
:1022D000F0D1019803B030BD8896002007B50023E7
:1022E000019307480022002301A902F0D7FB10B197
:1022F000FFF7DCFF0190019803B05DF804FB00BF1D
:1023000088960020F0B5037A457A85B02D090190B2
:10231000D8071CD4DDB1002426460198314612F0BE
:1023200091FA0746FFF72EFE70B134B9019B29469A
:102330001869FFF715FD044648B124FA06F3D907DA
:1023400002D53846FFF78EFF0136AE42E5D3019B3A
:102350001A7A920704D55B69084C0393039B2BB947
:10236000064801A902F0CCFB05B0F0BD1D6803A929
:10237000204602F0C5FB0395F0E700BF88960020D9
:102380000EB403B503AB014653F8042B0448019384
:10239000FFF70AFB002002B05DF804EB03B07047C2
:1023A0004D4C01002DE9F04F85B011F002049DF86D
:1023B00038700646904601F0010901F0080507D083
:1023C00011F0440F37D133491A46FFF7D9FF0446BD
:1023D000B9F1000F0AD0304B304953F82720304B69
:1023E0003046002A08BF1A46FFF7CAFF3DB12D4B01
:1023F0002D4953F827203046FFF7C2FF0546B8F1B4
:10240000000F44D0012303FA07F7284B17F0100FF1
:10241000274F18BF1F46BDF840109DF83C00FFF73E
:1024200019FD394602463046FFF7AAFF28442044EA
:1024300005B0BDE8F08F1F4A116831B31E4A4FF452
:10244000616E1468B3FBF4F34FF47A7CB3FBF1F4E0
:10245000B4FBFEF20EFB124E01FB14340CFB04F431
:102460004FF03C0AB4FBF1FB01FB1B440CFB04F4F2
:10247000BEFBFAF3B4FBF1F1CDE901B10AFB13E1C4
:1024800000910E49FFF77CFFA1E708469FE7084F40
:10249000C1E700BF1E6002003C5502009E650200BD
:1024A000146002005055020043600200497B0200A4
:1024B00019600200A4960020A89600202760020060
:1024C00038B50C46E107054603D5084A0849FFF729
:1024D00057FFE20608D4A30628464CBF0549064923
:1024E000BDE83840FFF74CBF38BD00BF14600200A4
:1024F0009E6502004A600200496002002DE9F04733
:102500001D46089B1746DA0604460E4605D4990672
:102510004CBF2B492B49FFF733FFDFF8B0904FF04A
:102520000008A8452DDBDFF8A880DFF8A890DFF8C9
:102530009CA00025BD4232D2725D49462046FFF77D
:102540001FFF0135102D23D11F49DFF88080DFF8F0
:102550008890DFF888A02046FFF712FF0025AF42E1
:1025600029D9725D12F8093013F0970F08BF2E2297
:1025700051462046FFF704FF0135102D14D1BDE868
:10258000F08749462046FFF7FBFE08F10108C8E73F
:102590006A07CFD151462046FFF7F2FECAE741460F
:1025A0002046FFF7EDFECCE76B07D8D14146204629
:1025B000FFF7E6FED3E741462046FFF7E1FEDBE703
:1025C0004A6002004960020056600200FE7002008C
:1025D000526002004C600200269402005860020023
:1025E0002DE9F0478B7A13F0070817468AB00A7A6C
:1025F00005460E4621D04989C3F3C203C1F38911B0
:10260000D243CDE900830291F36802F0010239461A
:10261000FFF7C8FE8146347AE44314F001040ED07B
:102620002946304612F0A8F9B8F1000F2BD04246E7
:1026300039462846FFF744FF25E0C146EBE7B8F1ED
:10264000000F26D12746EB68069306AA3B46A968E9
:10265000304612F07DF9069A6B681A603AB1AB68A1
:10266000134413F8014CA4F10A035C425C41284670
:1026700012F0DFFA069B1F44002BE4D11CB1144971
:102680002846FFF77DFE284612F0D3FA0AB0BDE8CF
:10269000F087304612F008F90E4902462846FFF747
:1026A0006FFE4FF0100A05AA234606A93046CDF862
:1026B00014A012F04DF9059A002AB8D04B460097A5
:1026C00006A92846FFF71AFF059B1C44EBE700BF4D
:1026D0005B6002009E65020073B5D0E900435D684F
:1026E0000F4A42F20F738B4228BF0B466846052102
:1026F00011F0D4FE2B4606460A4920460B2212F062
:102700002EF92B4632466946204612F028F9064932
:102710002B461B22204612F022F902B070BD00BFEA
:10272000C35E0200996002007D600200084A10B595
:102730000123084C13600021A04204D801B11360AA
:10274000054B186010BD40085B000121F4E700BF95
:10275000A896002040420F00A4960020014B0122C1
:102760001A707047B6E6002008B5034812F061FA07
:10277000024B01221A7008BD7C550200B7E600200A
:102780000148FFF7A9BF00BF7C55020010B50846FD
:102790000C4612F047F8054821460F22FFF720FFAC
:1027A0002046BDE8104012F06CB800BF7C55020016
:1027B000054B1B781BB141F2883012F076BEA42085
:1027C000002102F0AFBD00BFB7E600202DE9F84FB1
:1027D000DFF89090DFF890B007460E460424CA4612
:1027E00099F8003033B94FF0FF324FF0FF335846BD
:1027F00002F0B0F932463946002000F0B3FA9AF8F8
:102800000030804613B9584602F01CFA144DB8F156
:10281000000F18D001232B709AF8003033B93046DE
:10282000BDE8F88F5CB92C704FF0FF34002000F049
:1028300019FB0028F3D02B78002BF3D1EFE7013CF4
:10284000FFF7B6FFF2E72B7813B1013C04D12C70EF
:102850002B78002BC4D1E2E7FFF7AAFFF8E700BF0F
:10286000B6E60020B7E60020AC08002038B5044CDE
:10287000044DAC4200D338BD54F8043B9847F8E708
:10288000C8EB0100C8EB010038B5054C256804EB26
:10289000850405B938BD54F80439013D9847F8E777
:1028A000C0EB010008B50448FFF778F8024800F0D3
:1028B0006BFF002008BD00BFBD2800002DE9F341DB
:1028C000DFF86080164E8DF80700044603254FF0B0
:1028D000FF334FF0FF32404602F03CF901220DF188
:1028E0000701002000F08AFA0746404602F0AAF9E4
:1028F0002FB101233370204602B0BDE8F081337858
:10290000002BF8D0013D08D012F0C9FD0028DED11F
:102910000021422002F006FDD9E73570EBE700BF49
:10292000B8E60020AC080020F8B5124FFB680C2474
:1029300004FB00340123054663724FF02003EFF3DC
:10294000118183F31188BFF36F8F23682BB1666801
:102950001A682260B34208BF626081F31188BFF336
:102960006F8F03B9F8BDD3E9016229463846B047F5
:10297000E3E700BF90070020154B07B51A6882B146
:102980004FF08042D2F80423D1070AD500221A6002
:102990001B680093009B0F4BDB68587A08B9FFF760
:1029A000C3FF0D4B1A6882B14FF08042D2F8042366
:1029B00092070AD500221A601B680193019B01202F
:1029C00003B05DF804EBFFF7AFBF03B05DF804FBA5
:1029D000000100409007002004010040821C084BC9
:1029E00022F07F42C3F84025D3F80425904200D15D
:1029F0007047D3F80405821C22F07F42F2E700BF43
:102A000000100140044B002282B01A601B68019341
:102A1000019B02B0704700BF4011014008B5FFF7AD
:102A2000F1FF074B074AD3F840051368C01A20F09E
:102A30007F4003441360BDE8084002F04BBE00BF76
:102A400000100140DC96002038B5144801F08CFEDF
:102A500000B38368124D1B68012100249847C5F814
:102A60000845FFF7CFFF0F4B4FF40032C3F880212A
:102A70004FF48033C5F8043322460121112000F0C1
:102A800059FA112000F046FA074A01231360204644
:102A90002B6038BD4FF0FF30FBE700BFBB6002008A
:102AA0000010014000E100E00810014070B52A4B21
:102AB0002A4C1968D4F80425294D521AB0F1FF3F69
:102AC00008BF284622F07F43120234D4013820EA9E
:102AD000E070A842A8BF284601334FF4803618445E
:102AE000C4F80863A84294BF0D184D19D4F8040522
:102AF000D4F84015FFF786FF091A21F07F4120F036
:102B00007F430129C4F84035C4F8446304D10F2041
:102B100012F0CBFCFFF776FF124B4FF40032C3F8F4
:102B20008021D4F804052B1A23F07F43012B04D114
:102B3000FFF754FF0BE00020CEE725F07F43C4F8F9
:102B40004035D4F804052D1A023D2B02F0D44FF481
:102B50008033C4F8043370BDDC96002000100140BF
:102B6000FFFF7F0000E100E04FF02002EFF3118350
:102B700082F31188BFF36F8F064AD2F80405064A24
:102B80001268801A20F07F4083F31188BFF36F8FA3
:102B9000704700BF00100140DC9600204FF020037A
:102BA000EFF3118283F31188BFF36F8F0649074B50
:102BB0000868D3F8043582F31188BFF36F8F1B1AAE
:102BC00023F07F4318447047DC960020001001403A
:102BD00001480FF041B800BFB055020008B530B150
:102BE00043683BB1006802F02DF8002008BD6FF487
:102BF000E040FBE70048F9E7EA8FFFFF38B50446FD
:102C000018B90B4B0B485B689847656855B115F0D0
:102C10000205206807D10146074801F071FF2560D1
:102C20000023636038BD142200211BF006FDF7E786
:102C3000E8060020E5600200E096002010B504469A
:102C400018B9144B14485B6898476368CBB923687C
:102C5000BBB912484FF0FF324FF0FF33214601F06D
:102C60001DFF08B923681BB90A4B0D485B689847DC
:102C70002068142200211BF0E0FC636843F002038B
:102C80006360206812F00DFB636843F0010363602A
:102C900010BD00BFE8060020E5600200E0960020BD
:102CA0000B61020008B568B1436873B100684FF06A
:102CB000FF334FF0FF3201F04DFF054B002818BFE6
:102CC000184608BD6FF4E040FBE70248F9E700BF93
:102CD000E98FFFFFEA8FFFFF08B50649064840234A
:102CE000142212F0C3FABDE80840044904480EF06B
:102CF000EFBF00BFFC960020E0960020C855020000
:102D0000B855020010B5114C114AA2610323C4E961
:102D10000433104BE36122664FF480630E4A0F497F
:102D20002362626600231022E01DA3626362E362F5
:102D30002367E3666367A2661BF047FD08492046E8
:102D40001BF043FD2023A37110BD00BFFC9B00209E
:102D500038610200C9E60020B9E6002041610200A6
:102D6000456102002DE9F84F234F4FF0180B144630
:102D70000BFB00720646936A556AAB42884634D80C
:102D8000D2F820A0AAEB050909F1FF32944211D82C
:102D90004FF0180906FB09933B4422465868414608
:102DA00028441BF03CFC09FB06762C44746201208D
:102DB000BDE8F88F13449C421BD800FB0BBBBB44FF
:102DC0004A46DBF804002C4428441BF028FCB4EBF2
:102DD0000A0406D0DBF80400224608EB09011BF0C8
:102DE0001EFC182000FB0676E0E7013B5B1BA342BC
:102DF000CED20020DCE700BFFC9B0020F8B5184CC9
:102E0000182300FB033503FB00402544C46A012C52
:102E10000F4616460FD0022C1AD0F4B9284611F0EE
:102E2000EDFF864205D832463946284611F0F4FFB8
:102E300034462046F8BD284611F0E0FF864234466D
:102E400028BF044622463946284611F0E5FFF0E740
:102E50002846BDE8F84011F0FBBF0024E9E700BFB9
:102E6000FC9B0020034B182202FB0030836A406A5F
:102E7000C01A7047FC9B0020094A0A4993680968F8
:102E800019670949D8664B6843F080534B600023AB
:102E900083F31188BFF36F8F9368186F704700BF7B
:102EA000E09D0020B456020000ED00E00F498A6862
:102EB0004FF030001044EFF3098C80E8F01F202021
:102EC00080F31188BFF36F8F094F4FF000664A6A95
:102ED0008A603E60D06E0023D36680F3118802F1D1
:102EE000300090E8F01F8CF309887047E09D0020C7
:102EF00004ED00E01EF0040F0CBFEFF30880EFF3C9
:102F00000980816911F8021C0229FFD001B511F076
:102F1000D3FF01BD43B2002B08DB012200F01F00EC
:102F200002FA00F05B09024A42F82300704700BF32
:102F300000E100E043B2002BA8BF03F1604301F1C0
:102F40000101B8BF064B4FEA4111ACBF03F5614325
:102F500000F00F00C9B2B4BF195483F800137047D2
:102F600014ED00E0C0E918120A44203A22F00702EA
:102F700008491360009B5360019B9360029BD360E0
:102F80004FF08073D36121F001010023916102654C
:102F9000C3667047DF440100F8B51D4606460C467F
:102FA00017460023E1EE103A00F028FB084BE21927
:102FB00022F007049E60284684F30988002163B646
:102FC00081F31188BFF36F8F0022002311F087FA7D
:102FD000E09D0020014910220A60704710ED00E0DA
:102FE00072B6404080F31188BFF36F8FBFF34F8FED
:102FF00030BF62B6BFF36F8F704700BF73B5064630
:103000000C4601B3134B144D1448ED1AED08AD01F5
:1030100045F00105ADF80050D1E90123096811F030
:1030200075FBADF80050D4E90423E1680C4811F0B9
:103030006DFBE1690B482A4611F038FBA1690A488B
:103040002A4611F033FB2146304602B0BDE87040FD
:1030500001F0B4BBC8EB0100E8EB01004C610200D9
:103060007B610200AA610200B961020030BFFFF774
:10307000FDBF00BF174A08B5174B22F07F029A60C8
:10308000BFF34F8FBFF36F8FD3F8882022F4700205
:10309000C3F88820D3F8882042F4A002C3F888201F
:1030A0000E4A536823F040435360BFF34F8FBFF382
:1030B0006F8F0023E1EE103AEFF3148323F0040343
:1030C00083F3148801F0F6FB01F0FEFB00F064FAD4
:1030D00001F03CFC0000000000ED00E030EF00E0FB
:1030E00001B572B60B4A106A00281EBF002111629A
:1030F00012F0BAF862B6EFF30580A0F110004FEAC3
:10310000C0000549014409C99847BDE80140034989
:1031100008470000E09D002040EA01007D350000E6
:1031200011F0F9FE202080F3118808484FF4006167
:10313000401880F30988EFF314800221084380F3DC
:103140001488BFF36F8FFFF795FF0000200F012059
:10315000EFF30880EFF30981724601B500F032F910
:1031600001BD00BF70B5234B234C244D2448E41A05
:10317000E408A40144F00106314611F088FAAA6A75
:10318000930103D51F48314611F081FAAB6ADD0186
:1031900004D51D4844F0010111F079FA174DAA6ACF
:1031A000100304D5194844F0010111F070FAAB6A1C
:1031B000590304D5164844F0010111F068FA0F4D87
:1031C000AA6A920304D5134844F0010111F05FFA92
:1031D000AB6ADB0304D5104844F0010111F057FA43
:1031E000064A936A6FEA03436FEA1343936200202F
:1031F00070BD00BFC8EB0100E8EB010000ED00E08E
:10320000E7610200FF610200126202002C6202000C
:103210004A6202006F620200896202002DE9F041F9
:10322000274B284C284DE41AE408A40144F0010877
:1032300007460E462548414611F029FAAA6AD106EA
:1032400003D52348414611F022FAAB6A1A0704D588
:10325000204844F0010111F01AFA1B4DAB6A9B079C
:1032600012D544F001081C48414611F010FA696B70
:10327000AB6A180608D51948424611F017FA1FB173
:10328000AB6A23F08003AB620F4DAA6AD20704D564
:10329000134844F0010111F0FAF9AB6A9B0604D51A
:1032A000104844F0010111F0F2F9074B9A6A9A6A4A
:1032B000002042F0FF029A623070BDE8F08100BF4A
:1032C000C8EB0100E8EB010000ED00E0B462020091
:1032D000CA620200FD62020010630200286302005D
:1032E0003E6302005D6302002DE9F0412A4B2B4C46
:1032F0002B4DE41AE408A40144F0010807460E46E9
:103300002848414611F0C3F9AA6AD10403D52648DA
:10331000414611F0BCF9AB6A1A0504D5234844F0C4
:10332000010111F0B4F91E4DAB6A9B0512D544F0B2
:1033300001081F48414611F0AAF9A96BAB6A1804AD
:1033400008D51C48424611F0B1F91FB1AB6A23F40D
:103350000043AB62124DAB6A590504D5164844F0E0
:10336000010111F094F9AB6ADA050DD5134844F068
:10337000010111F08CF90A4A936A002043F47F435B
:1033800093623070BDE8F081AB6A9B04F3D50C48C2
:1033900044F00101EDE700BFC8EB0100E8EB0100DC
:1033A00000ED00E08C630200A2630200FD620200F7
:1033B000B3630200CC630200E1630200FC6302001D
:1033C0005D6302002DE9F0415A4B5F688AB0C7F394
:1033D0000804002686F31188BFF36F8F02F07F4345
:1033E000B3F17F4F0DD102F00C03082B0BD15249E2
:1033F000524B5348C91AC908890141F0010111F023
:1034000046F9354604E012074EBF0D460546012633
:1034100000238DF80730E31E092B71D8DFE803F095
:10342000055F633C707070707067444B424F454855
:10343000FF1AFF08BF0147F00107394611F027F9CD
:103440003C4BDC6A4FF0000814F002048DF8078052
:1034500005D03D48394611F01AF900241FE0DB6A17
:103460005B001CD53948394611F011F9384B1B78EF
:103470002BB10DF107010120FFF7D0FE0EE0354B17
:103480001B782BB10DF107010120FFF72DFF05E09F
:10349000314B1B889BB213B1FFF764FE04469DF8C5
:1034A0000730CBB92B4603F1200702AD18685968E5
:1034B0002A4603C20833BB421546F7D1099B9EB387
:1034C000C3F3080222B96FEA53236FEA4323099337
:1034D00002A92046FFF792FD0AB0BDE8F0810DF188
:1034E00007010020C8E70DF107010020CDE71249D0
:1034F000124B1A48C91AC908890141F00101AAE70B
:103500000E4A0D4B164817499B1ADB0817F4F87F33
:103510004FEA831318BF014643F001031248A4F198
:10352000100211F0DAF898E723F4FF7323F0010397
:10353000CDE700BF00ED00E0E8EB0100C8EB0100C3
:10354000146402003F6402005664020077640200C3
:1035500028ED00E029ED00E02AED00E0966402008D
:10356000E1640200CC640200FA640200024A53697A
:1035700043F010035361704700ED00E0044B99687D
:10358000586A884203D003494FF080520A6070475E
:10359000E09D002004ED00E0044800232021C21833
:1035A0000133302B82F80013F9D1704700E100E0BD
:1035B00038B504464FF02003EFF3118583F31188EB
:1035C000BFF36F8F01F032FD0A4B9B68A3420BD112
:1035D000094B5A68C2F3080212B92846FFF74CFC9F
:1035E0005A6842F080525A602846BDE8384011F0CF
:1035F00093BE00BFE09D002000ED00E01FB5084B2A
:103600000193084B0293084B039301AB0093074AC5
:10361000074B0121684600F0ADF805B05DF804FBEA
:10362000000000200000000000000B060000002049
:1036300000000420F8B52A4F00268E421FDA50F809
:1036400026C0DCF80440002C48D0D3B104F1FF3E82
:1036500014EA0E0F06D11F2C04D9DCF800501EEA24
:10366000050F0ED01F4A204B2048D21AD2089201D3
:1036700042F00102314611F019F86FF015021046C0
:10368000F8BD202CD5B2DCF80020DCF808C016D933
:10369000B4F1004F15D8013CB4FA84F4C4F11F040E
:1036A0006400072D4CEA04040DD90E4A0E4B104855
:1036B000D21AD208920142F001022946DBE708241F
:1036C000EFE73E24EDE722F01F022A4342F010020A
:1036D00044F00104BD60FA603C616A1C0136ACE74D
:1036E00090ED00E0E0EB0100C8EB01001165020085
:1036F00034650200034B05225A60BFF34F8FBFF3BE
:103700006F8F704790ED00E0BFF35F8F014B002299
:103710005A60704790ED00E013490868082810B51A
:103720001ED8FFF7F1FF114C49680022904201F1C9
:103730000C0105D10E4B1870FFF7DCFF002010BD07
:10374000A26051F80C3C23F01F03134343F0100315
:10375000E36051F8043C43F0010323610132E5E7E3
:103760004FF0FF30EBE700BFDC55020090ED00E0CA
:10377000C9EA002010B5034C01232278FFF75AFF55
:10378000207010BDC9EA0020014B1860704700BFCF
:1037900030000020F8B5084F06460D460024AC4224
:1037A00008DA3B6898470A28305504F1010401D033
:1037B0000D28F4D12046F8BD2C000020F8B50A4FA2
:1037C0000D46461EC0F10104A3199D4201DC2846A6
:1037D000F8BD73780A2B02D13B680D2098473B68EF
:1037E00016F8010F9847EFE73000002008B50248AF
:1037F0000521FFF7E3FFFEE75A65020010B54FF021
:10380000FF3204464FF0FF330A4810F059FE0A49D0
:103810000B68E018094CC4F1005202F58022904276
:103820003ABFE41808604FF0FF34024810F043FE3E
:10383000204610BD38080020A49C0020C01B012099
:103840004FF02003EFF3118283F31188BFF36F8FE2
:1038500006490123C1F840354FF08041C1F8783561
:1038600082F31188BFF36F8F0020704700E00140A2
:103870004FF08043C0B2C3F81C05BFF34F8F05491A
:10388000054BCA6802F4E0621343CB60BFF34F8F6D
:1038900000BFFDE700ED00E00400FA0520B1034B96
:1038A000800143F001031847704700BFF048020051
:1038B00008B5094B1A786AB901211970062005214B
:1038C000FFF738FB0620FFF725FB044B4FF00042C3
:1038D000C3F80423002008BDCAEA002000600040AD
:1038E0002D4BF0B546682D481340834245D00DD886
:1038F000062B15D005D89BB1022B40D06FF01500D8
:103900003AE0B3F5801FF9D1012309E0244883424E
:1039100037D0B3F5A00F36D0B3F5800FEED1022328
:10392000D00654BFC2F34015032582F48074970576
:10393000C2F34020C4F3002407D512F4006F776867
:1039400023D001228A40C7F80825327A01F01F01EE
:1039500041EA42111F2940EA4402C6BF01F01F019B
:10396000104E4FF0A04642EA032301F5E07143EA0E
:10397000850346F821300020F0BD0723D0E704235B
:10398000CEE70523CCE70323CAE7520542BF012255
:103990008A40C7F80C25D8E70600F00006001000A2
:1039A00002004000000300501F288ABF074B4FF061
:1039B000A04300F01F0003EB8000D0F8003723F491
:1039C000403343EA0141C0F800177047000300503C
:1039D000F7B54368C668187A01F01F040D464949D7
:1039E000D1F8042344EA4014D2B2002303F5A270B4
:1039F00051F82000C0F3052084426DD122FA03F073
:103A0000C00769D59A0002F1804202F5C042D2F89F
:103A1000100520F00100C2F81005012202FA03F39C
:103A2000C1F8083320460021FFF7BEFFF368EB40E2
:103A300013F001004ED03369EB4013F0010049D080
:103A4000B369EB4013F0010250D0F3692D4FEB4006
:103A5000DB075FBF716921FA05F505F00105C5F1C6
:103A6000020554BFEDB20325002606F5A27357F8F0
:103A7000230010F0030033D1B20002F1804202F5BE
:103A8000C0422402D2F8101521F44F3121F44071C4
:103A9000C2F81015D2F8101504F47C5444EA054518
:103AA0000D4306F14001890089B201F1804101F521
:103AB000C041C2F810550860096801910199D2F817
:103AC000101541F00101C2F81015012202FA06F6A4
:103AD000C7F8046303B0F0BD0133082B86D1A1E71A
:103AE0000136082EC1D16FF01200F3E77169E94089
:103AF00001F00101C1F103012046C9B2FFF754FFF3
:103B00001046E7E700600040B2F5A03F70B4C4681B
:103B100016D145682E7A01F01F0545EA46151F2D7E
:103B2000C6BF05F01F051E4E4FF0A04605F5E07517
:103B300056F82550ED0707D56FF0850070BC70472B
:103B4000B2F5005FE56826D0E66801258D40354373
:103B50002669E56001258D40B2F5005F14BF2E4354
:103B6000AE432661A669B2F5A03FE2690CBF2E43C1
:103B7000AE43B3F5C02F0CBF2A43AA43E26162698A
:103B8000A661B3F5802F0CBF154322EA05056561D8
:103B900070BCFFF71DBF01268E4025EA0605D7E75A
:103BA00000030050F0B5002685B0CDE90266284D2F
:103BB0002C685CB1274811F01DFA0290264811F0DC
:103BC00019FA03902E602B680093009B234D00226E
:103BD00001269446D5F8043306FA02F119421DD0A5
:103BE000910001F1804101F5C2410B68B3B102F5CA
:103BF000A27304AF55F82330C1F800C0C3F34030BE
:103C000007EB8000C3F3042350F8087C06FA03F3A3
:103C10003B4340F8083C0B680193019B0132082AA2
:103C2000D8D1029911B10B4811F0C9F9039911B11A
:103C3000094811F0C4F944B1064811F00DFA0648DC
:103C400005B0BDE8F04011F007BA05B0F0BD00BF07
:103C50007C610040D0070020E007002000600040A9
:103C600002480021C2E90001002070470024F4004E
:103C700010B50446406800231A4600F1080100F020
:103C800065FC094B98420DD0084B094A0948216848
:103C9000D21AD208920142F0010210F007FD6FF033
:103CA0000F0010BD0020FCE70000AD0BC8EB0100C9
:103CB000F8EB0100816502002DE9F0479DF82050E6
:103CC00047680C461646C1689846002D40F088802B
:103CD000FA1D12F8013FFF2B04D023F080039C4211
:103CE00000F081800135EDB2042DF2D1614A624BC2
:103CF0006248D21AD208920142F00102214644E001
:103D0000002080E00133042B40F08B8032460023FA
:103D1000B2F5004F5FFA83FE29D281F80EE0D7F8A2
:103D200000E00E608A81CEF80C35CEF804C5CEF8DE
:103D300008258A7B4645334628BF434623FA02F2CC
:103D40000AF4004A42EA0A0292B2A9F80420C2F335
:103D50000E021AB1B1F80CC0944519D87A1992F92B
:103D60000820C3B1464577D8002A16DB74E001333A
:103D7000082B4FEA5202CBD13E4A3F4B4048D21A61
:103D8000D208920142F00102314610F08FFC5DE052
:103D9000C8B900205CE046455CD81F2C86BF394A74
:103DA00004F01F044FF0A042012303FA04F4C2F808
:103DB0000C45284611F07FF90028EAD10146384623
:103DC00011F03CFAE5E7384600F0A4FC0028FAD0F0
:103DD0000223012207F11801384600F05BFCD8E706
:103DE0006FF0850034E001EB4509B9F804A0CAF38F
:103DF0000E0313B18A899A4282D8284611F05BF9E2
:103E000080F00100C0B297F80EC00B68BCF1010F42
:103E100004BF76084FEA5808B3428AD0002301F164
:103E2000040EDAB2AA423FF46DAF3EF81320C2F39B
:103E30000E02002A3FF466AF0E490F4B1248C91A12
:103E4000C908890141F0010110F021FC6FF0150053
:103E5000BDE8F087002AA0DA1F2C86BF094A04F0CB
:103E60001F044FF0A042012303FA04F4C2F80845EE
:103E70009FE700BFF8EB0100C8EB0100E06502001E
:103E8000B665020000030050A1650200024BD3F8A2
:103E90008004C3F8800470470020004070B54B795F
:103EA000012B27D0032B22D110268B79032B1ED177
:103EB000CC7924B1012C1AD143681B78BBB10A79A3
:103EC00012B1022A13D10E220B68B3F5164F62D03D
:103ED0002DD8B3F5165F60D016D8B3F5966F5ED0C7
:103EE0000AD8B3F5967F5DD0B3F5167F5DD06FF03D
:103EF00085004FE00026D8E7B3F5166F58D0B3F52C
:103F0000965FF4D1344B39E0B3F5E14F53D007D885
:103F1000B3F5615F51D0B3F5964FE8D12F4B2DE04B
:103F200047F61225AB42E2D14FF4000326E0B3F589
:103F3000613F45D011D8B3F5963F43D008D84DF630
:103F4000C025AB4240D0B3F5614FD0D1244B15E032
:103F5000B3F5E13FCBD1234B10E0B3F5612F36D061
:103F600007D8214DAB4234D0B3F5E12FBFD11F4B61
:103F700004E01F4DAB42BAD14FF080531D4D344386
:103F80002243C5F82435C5F86C25C36803C983E806
:103F90000300002070BD184BF0E7184BEEE74FF41C
:103FA0009E23EBE74FF4A033E8E74FF41C33E5E73B
:103FB0004FF41D23E2E7124BE0E74FF46C13DDE70B
:103FC000104BDBE7104BD9E74FF46503D6E70F4BF7
:103FD000D4E74FF08063D1E700B0130000A04E009B
:103FE00000F0EB0000E0D70190D0030000705F0705
:103FF00040420F000020004000509D00005027006C
:1040000000F0750000B0AF0300903A0100D0BE0E82
:10401000084B1A6882B052B1002018601B680193E7
:10402000019B054BD3F818350B7002B070474FF069
:10403000FF30FAE70821004000200040F7B50E46A7
:1040400011F02DFA1B4DC0B964240127BFF35B8F1B
:1040500055E8003F002B03D145E80072002AF7D154
:10406000BFF35B8F0BD021200021013C01F05AF9F6
:1040700014F0FF04EAD103B0F0BD01232B600E4C15
:104080000022226022680192019A0C4A01211160EB
:10409000C2F814654FF47A76236823B9012011F031
:1040A0009DF8013EF8D1064B01221A6000232B60D7
:1040B000E1E700BFE89C00201C21004008200040F0
:1040C0000C2000404FF0A04337B5164C4022C3F8F7
:1040D0000825032100220825C3F81817C3F8202754
:1040E000C4F814550625C4F80C552025C3F8085506
:1040F000C3F81417C3F81C270523C4F80835072391
:10410000C168C4F81035FFF7C9FE48B90423C4F8E4
:104110000035054B18601B680193019B0123236048
:1041200003B030BD0020004008210040F0B54B79BD
:10413000012B29D0032B24D110268B79032B20D1DE
:10414000CC7924B1012C1CD143681B79CBB10A79FD
:1041500012B1022A15D10E220B684568B3F5164F2D
:104160002D6864D02DD8B3F5165F63D016D8B3F59B
:10417000966F61D00AD8B3F5967F60D0B3F5167FFD
:1041800060D06FF0850051E00026D6E7B3F5166FDA
:104190005BD0B3F5965FF4D1364B3CE0B3F5E14F1D
:1041A00056D007D8B3F5615F54D0B3F5964FE8D138
:1041B000314B30E047F61227BB42E2D14FF4000307
:1041C00029E0B3F5613F47D013D8B3F5963F46D009
:1041D00009D84DF6C027BB4243D0B3F5614FD0D1CB
:1041E0004FF46B0317E0B3F5E13FCAD14FF0EB7327
:1041F00011E0B3F5612F37D008D8204FBB4236D03D
:10420000B3F5E12FBDD14FF0E86304E01C4FBB4292
:10421000B7D14FF08053C5F82435C36803C9344380
:104220002243C5F86C2583E803000020F0BD4FF45D
:104230001D03F0E7134BEEE74FF49E23EBE74FF43B
:10424000A033E8E74FF41C33E5E74FF41D23E2E722
:104250000D4BE0E70D4BDEE74FF06C73DBE70C4BEB
:10426000D9E74FF46503D6E74FF07063D3E74FF01B
:104270008063D0E700B0130000A04E0090D0030090
:1042800040420F000050270000C0750000F03A00C7
:1042900000903A0137B54268134B1468C568042290
:1042A000C3F808250322C3F808270022C3F804270F
:1042B0002223C4F80C352123C4F814352946FFF70E
:1042C00035FF78B90823C4F80035C4F81001D4F8D4
:1042D00010310193019B0C350123C4F83455C4F807
:1042E0003835236003B030BD0003005008B5FDF73A
:1042F00095FF064B06490748C91AC908890141F0CC
:10430000010110F0C4F90020FFF7B2FAC8EB010078
:10431000D0EB01003A6602000A4B1B685A1C05BF2D
:10432000094B0A4A0A4A10680ABF1B781068C0F392
:104330000310082B04D103288CBF002001207047F4
:104340000020704730010010E00F00F0E80F00F08F
:1043500034010010064B1B68082B06D1054B1B6867
:10436000032B02D8044AD05C70470020704700BF7E
:1043700030010010340100106266020008B5FFF73A
:10438000CBFF40B14FF080430022C3F80C21C3F8AB
:104390001021C3F83825FFF7BFFF002846D04FF0A3
:1043A00080525E4BD2F80414C3F82015D2F80814DA
:1043B000C3F82415D2F80C14C3F82815D2F8101439
:1043C000C3F82C15D2F81414C3F83015D2F8181409
:1043D000C3F83415D2F81C14C3F84015D2F82014D1
:1043E000C3F84415D2F82414C3F84815D2F8281499
:1043F000C3F84C15D2F82C14C3F85015D2F8301469
:10440000C3F85415D2F83414C3F86015D2F8381430
:10441000C3F86415D2F83C14C3F86815D2F84014F8
:10442000C3F86C15D2F84424C3F87025FFF792FF47
:1044300010B13B4B3B4A1A60FFF78CFF18B13A4B67
:10444000FB22C3F81825FFF785FF48B13749384BE1
:104450000A681B6822F00F0203F00F0313430B607E
:10446000FFF778FF18B1334B4FF400721A60FFF773
:1044700053FF48B14FF08043D3F80024D20744BF24
:104480006FF00102C3F800242B4AD2F8883043F4BD
:104490007003C2F88830BFF34F8FBFF36F8F4FF0B8
:1044A0001023D3F80022002A03DBD3F80432002BB8
:1044B0002FDA224B0122C3F80425D3F80024002A66
:1044C000FBD04FF010221221C2F80012D3F80024C2
:1044D000002AFBD04FF010231222C3F80422174BFE
:1044E0001A46D3F800140029FBD00021C3F80415A4
:1044F000D2F80034002BFBD0BFF34F8F0E49104B86
:10450000CA6802F4E0621343CB60BFF34F8F00BF71
:10451000FDE70C4B0C4A1A6008BD00BF00C000400C
:104520008C5600404881030000F00040E40E00403B
:10453000580200104096024000ED00E000E001400B
:104540000400FA055C0000200090D0032DE9F04F34
:1045500006794C4D04460C2070432F1885B097F80F
:1045600008C0BCF1000F40F08A80DFF824E12A5037
:104570007B6001F1FF3C684601F1030A4FF0030B39
:104580004FF001081CF8012FFF2A74D00F7B22F096
:1045900080030360C7B9170660D51F2B87BF02F0E1
:1045A0001F07F1461F464FF0A04908FA07F7C9F860
:1045B00008751F2B8ABF02F01F034FF0A0427246FE
:1045C00003F5E07342F823B0D44500F10400D9D1DB
:1045D0002068009BC0F86035019BC0F86435029BE1
:1045E000C0F86835039BC0F86C350123C0F800356E
:1045F0008A790B894F79C0F80C75C0F80425C0F88A
:1046000008354B89C0F810350023C0F800324FF44C
:104610008E71C0F8003310F0E3FD20684FF488710C
:1046200010F0DEFD20684FF48A7110F0D9FD20688B
:104630004FF4827110F0D4FD0C237343EB5823B177
:10464000206840F30730FEF765FC0C2303FB06559A
:104650000D4801232B7205B0BDE8F08F1F2B87BFDB
:1046600002F01F07F1461F464FF0A04908FA07F76E
:10467000C9F80C759DE74FF0FF330360A4E70348CA
:10468000E9E700BFEC9C00200000AD0B0500AD0B7E
:1046900000030050F0B50E4601790468D6F800E03A
:1046A000B6F804C0B768C4F820E51D46184BC4F836
:1046B00024C501EB410103EB8101F368C4F82875BF
:1046C000C4F82C35C4F840E5C4F844C5C4F84875AE
:1046D000C4F84C3502F0010303EB5202C4F8142570
:1046E000EA0712D415F0020203D0002B14BF0822EF
:1046F0000422002BC4F8002218BF0C23EAB208BF22
:104700000823BDE8F04010F073BD1022F1E700BFB0
:10471000EC9C0020084B02790C2101FB023201685D
:10472000137AD1F80411DBB219B9981E18BF012011
:104730007047012010727047EC9C0020F8B5094BBF
:1047400053F820400130002753F82060A64200D8DB
:10475000F8BDD4E900352846984708B105B1AF60E7
:104760000834F3E7A05602000F4B70B50F4C054616
:104770001E469C4204D10D4CB44208D1002410E0E6
:10478000A26812B12268AA420BD01034F1E7A368E4
:104790000BB91034F0E721682846FCF725FE002805
:1047A000F7D1204670BD00BF100800209007002000
:1047B000014B98685C307047E09D00202DE9F34183
:1047C00005460F464FF02003EFF3118883F311885D
:1047D000BFF36F8F00F0C6FD214C224BE41A042D6D
:1047E0004FEAD40496BF204A204A52F82520A4015B
:1047F00044F001030646ADF800301D480023294669
:104800000FF084FF47B1FB69C3F3080323B11948D4
:1048100044F001010FF03BFF304644F0010410F07A
:1048200049FED0B10278144B002A08BF1846FDF7A4
:1048300073FB23460246314610480FF04EFF3946BF
:104840002846FFF753FD88F31188BFF36F8F30467A
:1048500002B0BDE8F041FEF7ABBE0748E7E700BF96
:10486000E8EB0100C8EB0100B856020066660200E2
:104870007C660200A466020074660200C56602003F
:1048800008B50B4D4FF02002EFF3118382F311882E
:10489000BFF36F8F10F026FE012102280446D8BF17
:1048A000084610F02FFE2C62FEF79AFBEAE700BFE5
:1048B000E09D00200248034A0021121A19F0BDBEF3
:1048C000C0080020E0EA002008B50648064A07496B
:1048D000121A19F0A4FEBDE80840054A0549064829
:1048E00019F09DBE00000020C00800205C95020069
:1048F000000000005C9502000000002008B50E4B8F
:10490000012202201A70FFF719FF0C4A0C490D48CA
:104910000FF0B7FDFDF7B8FFFDF7A8FF0320FFF785
:104920000DFF00F0C1FD0FF073FD074A137B23F06C
:104930000103137308BD00BFCBEA00204B600200E7
:1049400027670200376702006C9D00202DE9804830
:10495000A5B0FDF729FADFF8F49089F30888344D03
:10496000344E6B69DFF8E8A0DFF8E880324F43F49B
:10497000007300246B61E02385F82230EC772C76FD
:104980006C76AC766B6A43F4E0236B62FEF7EEFD67
:10499000FEF720FB4FF0FF33AB62EB62274D40F296
:1049A0000113ADF8283007ABAB602046CDE91F44BA
:1049B000FFF7C4FE0120FFF7C1FE4FF0010B00F02E
:1049C00057FC1F4B6E624FF4005241460593304630
:1049D0005346CDE9034BCDE90144009400F012FDAC
:1049E000737B304623F00403737310F0B5FC0F2380
:1049F000CDE902431349144B4FF4A0723846CDE978
:104A000004B4CDE9004400F0FDFC7B7BEF6023F0B3
:104A100004037B7305F11803C5E906332C75C5F84B
:104A2000049053464FF4005241463046FEF7B4FA24
:104A300000ED00E06C9D0020F89C0020E09D00202F
:104A40005E670200E00D0120814800002017012070
:104A5000FD480000E0ED002070B50E4B0E4CA34267
:104A600001D3002070BDD3E9030141EA000212F036
:104A700003020BD19D685A61AA4201D11C33EEE7B3
:104A80005E690E60013259610144F5E76FF015006F
:104A9000E8E700BF1008002010080020D3B50C463E
:104AA00016461F464FF02003EFF3118183F3118860
:104AB000BFF36F8F43695BB123601B6843618369F8
:104AC00001338361002081F31188BFF36F8F11E000
:104AD00056EA070203D123606FF00B00F3E70246AA
:104AE000CDE90067044800F06BFB18B9034B9B68E5
:104AF0005B69236002B0D0BDCCEA0020E09D0020BD
:104B000070B504460D464FF02003EFF3118683F392
:104B10001188BFF36F8F10F095FC58B12A6842617D
:104B20000021016710F018FC31460948BDE87040CB
:104B300010F0E7BB2B6862691A602B686361A36998
:104B4000013BA36186F31188BFF36F8F70BD00BF77
:104B5000CCEA00202DE9F341044616461F464FF0EB
:104B60002003EFF3118883F31188BFF36F8FC368BD
:104B7000324A6BB180689168884219D056EA0703BF
:104B800018D188F31188BFF36F8F6FF00F000CE01E
:104B9000916891F90E1021610133E3609368A3607D
:104BA00088F31188BFF36F8F002002B0BDE8F08159
:104BB0002169F0E790F90E3091F90E109942A8BFE3
:104BC000194621EAE1718B422CDD00F00DFB054610
:104BD000CDE900671A482246414600F0F1FA002864
:104BE000E3D04FF02003EFF3118683F31188BFF376
:104BF0006F8F236821699C4207D033B193F90E303F
:104C00009942A8BF194621EAE171A06890F90E30D7
:104C1000994209D16DB10A48314610F072FB6FF02C
:104C20000A00C2E70025D3E700F0DEFA0028F2D13F
:104C3000F0E786F31188BFF36F8FF0E7E09D002067
:104C4000CDEA002038B583680446002B36D01E4AD2
:104C50009268934235D1DA7B013ADA73C368012B4B
:104C600005D0013BC36000F0C3F8002038BD4FF011
:104C70002003EFF3118583F31188BFF36F8F016970
:104C8000806890F90E30994201D000F0ADFA2046CC
:104C900010F0D8FBA06058B190F90E2022610022DC
:104CA000026710F059FB0948294610F02AFBDAE7A1
:104CB000E06085F31188BFF36F8FD4E76FF01500C4
:104CC000D4E74FF0FF30D1E7E09D0020CDEA00208F
:104CD00010B5084C23685BB1FDF746FF2268064912
:104CE00010440861BDE810400021104610F00ABCD5
:104CF00010BD00BF189E0020E09D0020F8B50C46B6
:104D00004FF02003EFF3118583F31188BFF36F8F0A
:104D10000D4B4FF4004140F2E7360027E1FB0067FE
:104D200000221A6130464FF47A7200233946FBF7AD
:104D300037FA064B1860064B1C60FFF7C9FF85F376
:104D40001188BFF36F8FF8BDE09D0020189E0020F2
:104D5000149E00204FF02003EFF3118183F311889C
:104D6000BFF36F8F044B9A68D37B013BD37381F3FE
:104D70001188BFF36F8F7047E09D0020094B03F14E
:104D80002802824205D19B688B4202D14B7BDB0615
:104D900006D1D1E9003213605A600023C1E9003323
:104DA000704700BFE09D002070B5104C064604F12E
:104DB000280010F0C7FAA368597B0546880644BF4F
:104DC00041F00801597305B9E5684EB95A7BD2061E
:104DD00006D1AA6922B9DA897F2A01D9636270BD36
:104DE000AB4201D0FFF774FF6562F8E7E09D002059
:104DF00010B54FF02003EFF3118483F31188BFF354
:104E00006F8F084B9A68D37B0133D3730020FFF771
:104E1000CBFF84F31188BFF36F8FBDE8104010F013
:104E200087BA00BFE09D002070B4437BDB062AD127
:104E3000836943BB154A114651F8284F8C4218BF6D
:104E40002346002BD46A38BF0023B3B190F90E601B
:104E500093F90E50AE4203DBA3420ED01B68F4E779
:104E60005A68C0E9003210605860437B63F07F03EA
:104E7000437370BC0020FFF797BFC0E90014D36AEA
:104E80001860D062F1E770BC704700BFE09D002061
:104E900010B54FF02002EFF3118482F31188BFF3B5
:104EA0006F8F427B510704D484F31188BFF36F8F57
:104EB00010BD22F004024273FFF7B6FF21460248FC
:104EC000BDE8104010F01DBACEEA0020F8B501464A
:104ED0004FF02003EFF3118483F31188BFF36F8F3A
:104EE00090F90D30002B02DA1948FFF747FF194AF5
:104EF0001046D56A50F8283F834208BF0023002B94
:104F000038BF0023EBB191F90E7093F90E60B742F0
:104F100003DB9D4215D01B68F4E75868C1E90030F7
:104F2000016059604B7B906863F07F034B73431AB9
:104F300058425841FFF738FF84F31188BFF36F8F51
:104F4000F8BDC1E90005D36A1960D162EAE700BF84
:104F5000089E0020E09D002038B5154A154B1468C6
:104F600001469868A0421C4603D1BDE83840FFF7CF
:104F7000AFBE00251560104A1268B2B1C2897F2AFF
:104F800013D80E4A90F90E50126895420DDB0C4A68
:104F900090420AD0826942B91A698A4202DCFFF75C
:104FA00095FFE2E7521A1A6138BD00232361FBE73F
:104FB000109E0020E09D0020189E0020149E0020DE
:104FC000F89C002070B50446183010F075FA4FF0C8
:104FD0002003EFF3118683F31188BFF36F8F94F9E9
:104FE0000D30002B07DA0F482146FFF7C7FE637B21
:104FF00003F07F0363730C4D637BA86843F01003D9
:105000006373031B58425841FFF7CEFE86F31188A5
:10501000BFF36F8FAB68A34203D1BDE8704010F0BF
:1050200087B970BD089E0020E09D0020836D2DE9AA
:10503000F041044603B1984704F1180010F03CFA1F
:105040004FF02003EFF3118683F31188BFF36F8FC6
:10505000637BD80623D1A2690ABB190607D51F486E
:105060002146FFF78BFE637B03F07F0363731C4BCA
:105070009868021B50425041FFF796FE637B43F055
:105080000803637304F128080027A56A454500D08A
:1050900095B986F31188BFF36F8FBDE8F0819B0748
:1050A000ECD5A0682146FFF769FE637B23F002037D
:1050B00063730023A360E1E705F1180010F0FCF929
:1050C000A8682946FFF75AFE6B7BAF6023F0020306
:1050D0006B732F672846FFF7A7FED6E7089E0020D0
:1050E000E09D002008B590F90D30002B014606DA4E
:1050F0000748FFF743FE4B7B03F07F034B73054BE1
:105100009868431A58425841BDE80840FFF74CBE22
:10511000089E0020E09D0020F8B5054610F00DFA2D
:105120002C184FF02003EFF3118783F31188BFF39E
:105130006F8F0D4E0D4BB068186010F048F9B068D5
:105140000B492A46EB17183000F04AFAB268537B35
:1051500043F0100353733846FDF78EFE10F0EDF95F
:10516000201A20EAE070F8BDE09D0020109E00208B
:10517000795301002DE9F041064614461D464FF0D3
:105180002003EFF3118783F31188BFF36F8F10F0C3
:105190002EF987F31188BFF36F8F6B1C08BFB4F132
:1051A000FF3F08D022462B4606F118000349BDE810
:1051B000F04100F015BABDE8F08100BF795301005D
:1051C00010B5074B9868074B0C4618601146DDE98F
:1051D0000223FFF7CFFF2046BDE81040FDF74CBE8D
:1051E000E09D0020109E00202DE9F04104464FF084
:1051F0002003EFF3118883F31188BFF36F8F437B94
:10520000DB064EB22ED1856965BB184F214607F1EA
:105210002800FFF7B3FDBB6AFA6AA673834218BF82
:105220001D46002D38BF0025B5B195F90E10B142CD
:1052300003DCAA4210D02D68F6E76A68C4E9005280
:1052400014606C600120FFF7AFFD012088F3118826
:10525000BFF36F8FBDE8F081C4E90002FB6A1C60F8
:10526000FC62EFE7A6730020F0E700BFE09D00209E
:10527000044B002103F12802C3E90A220846FFF784
:105280003DBD00BFE09D0020F8B5244C244BA26832
:105290009A4230D04FF02003EFF3118583F3118849
:1052A000BFF36F8FA16804F12800FFF767FDA36AC1
:1052B000A268E16A834208BF0023002B38BF0023A5
:1052C0002BB392F90E7093F90E60B74203DB8B4259
:1052D0001DD01B68F4E75968C2E900310A605A60C2
:1052E000537B63F07F0353730120FFF75DFD85F36C
:1052F0001188BFF36F8F4FF02003EFF3118083F31A
:105300001188BFF36F8FBDE8F840FDF7B5BDC2E966
:105310000001E36A1A60E262E2E700BFE09D00205C
:10532000F89C00200B46013308BFB0F1FF3F10B5D9
:1053300006D10B4B9868FFF745FE4FF0FF3010BDCC
:10534000044648B9FFF7A0FF4FF47A7084FB00349D
:10535000D80B40EA4440F2E7FFF7DEFE0446F3E7ED
:10536000E09D0020014B9868704700BFE09D002041
:1053700038B504464FF02003EFF3118583F311880D
:10538000BFF36F8F10F05EF848B1002202670FF094
:10539000E3FF29460548BDE838400FF0B2BFD4E925
:1053A00002329A4218BF0133A360F2E7CFEA00202D
:1053B00037B514461D464FF02003EFF3118183F3F8
:1053C0001188BFF36F8F836843B1013B836081F322
:1053D0001188BFF36F8F002003B030BD54EA05037E
:1053E00006D181F31188BFF36F8F6FF00F00F3E7E1
:1053F0000246CDE900450248FFF7E2FEECE700BFB8
:10540000CFEA0020F0B587B0DDE90F6700F128058D
:10541000CDE9036786730E9E0296C0E90A550D9E7C
:10542000019604250C9E45730025C0E906550773B7
:10543000C57300960446FDF795FD044B9B68C4E9CF
:10544000155503B19B6EA36607B0F0BDE09D00202B
:10545000F0B587B000250595109D04950F9D039527
:105460000E9D0295DDE912670D9D01950C9D00953D
:105470000446FFF7C7FF7B1C08BFB6F1FF3F05D00E
:1054800056EA070305D12046FFF702FD204607B084
:10549000F0BD044932463B4604F1180000F0A0F884
:1054A000F4E700BF795301002DE9F04FDFF8B49025
:1054B0002B4D87B0C8464D4505F130040DD3FFF79D
:1054C00049FC274CDFF8A0A04FF40049444521D304
:1054D00007B0BDE8F04FFFF78BBC54F8043C0593D0
:1054E00054F8103C049354F8143C039354F8183CBB
:1054F000029354F81C3C019354F8203C009354E967
:105500000A2354E90C01FFF77DFF54F8303C5D6538
:105510002546D0E7616A4B1C17D021EAE17140F2C1
:10552000E73B4FF0000CC9FB01BC00234FF47A723B
:1055300058466146FAF734FE0027064656EA070346
:10554000256804D12846FFF7A3FC3034BEE70246A5
:105550003B46514605F1180000F042F8F5E700BF60
:10556000100800201008002079530100034B1B682D
:105570000BB9FDF7F9BA0020704700BF1C9E002050
:10558000036840B1074A5268904204D01BB19A6840
:1055900081680A449A60426813605A600023C0E937
:1055A00000337047600000200B4B10B51C689C4214
:1055B00008BF0024FFF7DAFF54B1A368181A20EAE5
:1055C000E070064B1B6913B19842A8BF184610BD86
:1055D0006FF00040F5E700BF60000020E09D002074
:1055E0002DE9F74F019119464B1C08BFB2F1FF3F5F
:1055F000824661D0541C6FF0010341F100054FF069
:10560000FF3BB3EB04086BEB0509B8F1000F79F130
:1056100000030FDBFFF7AAFF2C4AD2E9001C6FF052
:1056200001035B1A6BEB0C021E1B62EB0507341ABD
:1056300067EBE075019BCAF80C304FF02003EFF3E5
:10564000118683F31188BFF36F8FFFF78FFF012C53
:1056500075F100031E4B1A68B8BF012420449A421A
:10566000CAF8080001D05C6852B95A68CAF8042028
:105670005A68CAF80030C2F800A0C3F804A00DE0D0
:105680009068DAF80810884219DD411A9160516873
:10569000CAE90021C1F800A0C2F804A01A689A4221
:1056A00006D0924504D1FFF77FFF0021FDF7FEF9F8
:1056B00086F31188BFF36F8F03B0BDE8F08F091A2E
:1056C0009442CAF80810D0D01268CDE7A882002012
:1056D000600000202DE9F0470646FFF73DFC4FF043
:1056E0002003EFF3118483F31188BFF36F8F204DF4
:1056F000DFF88080DFF880A02E60C146DAF8000075
:105700002A685045D8E9006705D020B183689342E4
:1057100013DD9B1A8360B61847EBE277C9E900678F
:1057200000262E60FFF740FF3146FDF7BFF984F3F6
:105730001188BFF36F8FBDE8F087F61847EBE3776A
:10574000D31A2B6000238360C8E90067FFF718FFB6
:1057500084F31188BFF36F8FC36898474FF020031D
:10576000EFF3118483F31188BFF36F8FC6E700BF97
:105770001C9E0020A88200206000002010B54FF081
:105780002003EFF3118483F31188BFF36F8FFDF7CC
:10579000EBF9064BD3E90023121843F1000384F31D
:1057A0001188BFF36F8F1046194610BDA8820020E4
:1057B000F8B5D0E90823561C43F10007002F08BFB5
:1057C000022E044602D30C49FFF70AFFA36A0133F5
:1057D000A362A3690BB12046984754F8105FA54215
:1057E00008D03DB128460FF073FD28460FF0B4FDF8
:1057F00000232B67F8BD00BFB15700002DE9F34D22
:10580000DDE90A4554EA0501804616461F4616D0D2
:105810006FF00101B1EB040A4FF0FF3161EB050BB2
:10582000BAF1000F7BF1000109DA14F1FF3445F100
:10583000FF35012C75F10001BCBF012400256FF07C
:105840000101891A00914FF0FF3161EB03010191D1
:10585000DDE90001002871F1000109DA12F1FF36DB
:1058600043F1FF37002E77F10003BCBF002600276D
:1058700040460FF021FE00230649C8F82830324682
:105880003B464046C8E9084502B0BDE8F04DFFF789
:10589000A7BE00BFB157000038B5064C064DAC425C
:1058A00001D3002038BDD4E9011220460FF079FE63
:1058B0001834F4E7100800202808002020292DE9DA
:1058C000F04705468846144699460AD141F28C2392
:1058D000C05810B90120BDE8F087224918F0F0FC4B
:1058E000F8E703681B699847074648B141F28C23E3
:1058F000E8580028EED01C49424618F0E1FCE9E7E0
:1059000041F2040E55F80EC0BCF17F0F0AD941F2E6
:105910008C23E8580028DDD014498023424618F033
:10592000CFFCD7E70FCC05EB4C1A0AF104060FC6E3
:1059300094E80F0086E80F000CF10103CAF8188004
:1059400045F80E3041F2882341F20801EA58A818C0
:1059500000F8018002F22241013245F821903846D8
:10596000EA50B8E766670200AB670200FA67020018
:105970002DE9F04141F2882341F20406002541F26D
:105980008C278551C550DC4BC5510360044605F09A
:10599000D3F9DA4B024665212046FFF78FFF01F06D
:1059A000E5FC29460246D54B2046FFF787FF01F06C
:1059B000BBFDD24B024638212046FFF77FFF01F0A6
:1059C000B7FDCE4B02464F212046FFF777FF07F089
:1059D0007BFACA4B024601212046FFF76FFF01F018
:1059E000F9FEC64B024668212046FFF767FF03F029
:1059F0001FFFC24B024602212046FFF75FFF04F063
:105A00000BFBBF4B024603212046FFF757FF05F073
:105A10009BF9BA4B02466C212046FFF74FFF04F07A
:105A20004BFDB84B024604212046FFF747FF05F027
:105A300035F8B54B024606212046FFF73FFF01F03F
:105A4000CDFEAE4B024647212046FFF737FF05F05B
:105A500009FAAA4B024608212046FFF72FFF05F05E
:105A6000A5FCAA4B024609212046FFF727FF01F0BB
:105A7000BDFEA24B02463D212046FFF71FFF01F06D
:105A8000B9FE9E4B02463E212046FFF717FF05F068
:105A9000BBFC9A4B02460B212046FFF70FFF01F09B
:105AA000ADFE964B02463A212046FFF707FF01F074
:105AB000A9FE924B02463F212046FFF7FFFE05F06C
:105AC00047F98E4B024649212046FFF7F7FE05F0C5
:105AD00039FE8A4B024656212046FFF7EFFE05F0BD
